{
  "contractName": "VotingSystem",
  "abi": [
    {
      "inputs": [
        {
          "name": "daysTillRegistrationStart",
          "type": "uint8"
        },
        {
          "name": "daysTillRegistrationEnd",
          "type": "uint8"
        },
        {
          "name": "daysTillVotingStart",
          "type": "uint8"
        },
        {
          "name": "dayTillsVotingEnd",
          "type": "uint8"
        }
      ],
      "payable": false,
      "stateMutability": "nonpayable",
      "type": "constructor"
    },
    {
      "constant": false,
      "inputs": [
        {
          "name": "daysTillRegistrationStart",
          "type": "uint8"
        },
        {
          "name": "daysTillRegistrationEnd",
          "type": "uint8"
        },
        {
          "name": "daysTillVotingStart",
          "type": "uint8"
        },
        {
          "name": "dayTillsVotingEnd",
          "type": "uint8"
        }
      ],
      "name": "resetElection",
      "outputs": [],
      "payable": false,
      "stateMutability": "nonpayable",
      "type": "function"
    },
    {
      "constant": false,
      "inputs": [
        {
          "name": "_name",
          "type": "bytes32"
        },
        {
          "name": "_partyList",
          "type": "bytes32"
        },
        {
          "name": "_imgHash",
          "type": "string"
        },
        {
          "name": "_candidacy",
          "type": "string"
        }
      ],
      "name": "registerCandidate",
      "outputs": [],
      "payable": false,
      "stateMutability": "nonpayable",
      "type": "function"
    },
    {
      "constant": false,
      "inputs": [
        {
          "name": "_name",
          "type": "bytes32"
        }
      ],
      "name": "registerVoter",
      "outputs": [],
      "payable": false,
      "stateMutability": "nonpayable",
      "type": "function"
    },
    {
      "constant": false,
      "inputs": [
        {
          "name": "_candidateName",
          "type": "bytes32"
        },
        {
          "name": "_candidacy",
          "type": "string"
        },
        {
          "name": "_voterName",
          "type": "bytes32"
        }
      ],
      "name": "voteCandidate",
      "outputs": [],
      "payable": false,
      "stateMutability": "nonpayable",
      "type": "function"
    },
    {
      "constant": true,
      "inputs": [
        {
          "name": "_index",
          "type": "uint8"
        },
        {
          "name": "_candidacy",
          "type": "string"
        }
      ],
      "name": "getCandidateByIndex",
      "outputs": [
        {
          "name": "",
          "type": "bytes32"
        },
        {
          "name": "",
          "type": "bytes32"
        },
        {
          "name": "",
          "type": "string"
        },
        {
          "name": "",
          "type": "uint24"
        }
      ],
      "payable": false,
      "stateMutability": "view",
      "type": "function"
    },
    {
      "constant": true,
      "inputs": [
        {
          "name": "_name",
          "type": "bytes32"
        },
        {
          "name": "_candidacy",
          "type": "string"
        }
      ],
      "name": "getCandidateByName",
      "outputs": [
        {
          "name": "",
          "type": "bytes32"
        },
        {
          "name": "",
          "type": "bytes32"
        },
        {
          "name": "",
          "type": "string"
        },
        {
          "name": "",
          "type": "uint24"
        }
      ],
      "payable": false,
      "stateMutability": "view",
      "type": "function"
    },
    {
      "constant": true,
      "inputs": [],
      "name": "getPresCount",
      "outputs": [
        {
          "name": "",
          "type": "uint8"
        }
      ],
      "payable": false,
      "stateMutability": "view",
      "type": "function"
    },
    {
      "constant": true,
      "inputs": [],
      "name": "getVicePresCount",
      "outputs": [
        {
          "name": "",
          "type": "uint8"
        }
      ],
      "payable": false,
      "stateMutability": "view",
      "type": "function"
    },
    {
      "constant": true,
      "inputs": [],
      "name": "getSenCount",
      "outputs": [
        {
          "name": "",
          "type": "uint8"
        }
      ],
      "payable": false,
      "stateMutability": "view",
      "type": "function"
    },
    {
      "constant": true,
      "inputs": [
        {
          "name": "_name",
          "type": "bytes32"
        },
        {
          "name": "_candidacy",
          "type": "string"
        }
      ],
      "name": "getVotes",
      "outputs": [
        {
          "name": "",
          "type": "uint256"
        }
      ],
      "payable": false,
      "stateMutability": "view",
      "type": "function"
    },
    {
      "constant": true,
      "inputs": [
        {
          "name": "_index",
          "type": "uint24"
        }
      ],
      "name": "getVoterByIndex",
      "outputs": [
        {
          "name": "",
          "type": "bytes32"
        },
        {
          "name": "",
          "type": "bool"
        }
      ],
      "payable": false,
      "stateMutability": "view",
      "type": "function"
    },
    {
      "constant": true,
      "inputs": [
        {
          "name": "_name",
          "type": "bytes32"
        }
      ],
      "name": "getVoterByName",
      "outputs": [
        {
          "name": "",
          "type": "bytes32"
        },
        {
          "name": "",
          "type": "bool"
        }
      ],
      "payable": false,
      "stateMutability": "view",
      "type": "function"
    },
    {
      "constant": true,
      "inputs": [],
      "name": "getVoterCount",
      "outputs": [
        {
          "name": "",
          "type": "uint24"
        }
      ],
      "payable": false,
      "stateMutability": "view",
      "type": "function"
    },
    {
      "constant": false,
      "inputs": [
        {
          "name": "_voterName",
          "type": "bytes32"
        }
      ],
      "name": "invalidateVoter",
      "outputs": [],
      "payable": false,
      "stateMutability": "nonpayable",
      "type": "function"
    }
  ],
  "bytecode": "0x608060405234801561001057600080fd5b506040516080806120328339810180604052608081101561003057600080fd5b508051602080830151604080850151606090950151815180830183524262ffffff6201518060ff98891681028216830180855296891681028216830193880184905260009690965560019290925583518085019094529686168402811687018084529590911690920290911693909301920182905260025560035560088054600160a060020a03191633179055611f66806100cc6000396000f3fe608060405234801561001057600080fd5b5060043610610107576000357c01000000000000000000000000000000000000000000000000000000009004806394da21f6116100a9578063cdd2453c11610083578063cdd2453c146105a5578063d6fb3c48146105ad578063fad65d80146105ca578063fb79cb021461068957610107565b806394da21f6146104475780639ca387db14610580578063aee8caf01461058857610107565b80631a03778d116100e55780631a03778d1461032457806369597822146103d157806369be7516146103ef578063793c5d211461042a57610107565b806307290b311461010c578063099d16661461025357806311174a2914610304575b600080fd5b6101bc6004803603604081101561012257600080fd5b60ff823516919081019060408101602082013564010000000081111561014757600080fd5b82018360208201111561015957600080fd5b8035906020019184600183028401116401000000008311171561017b57600080fd5b91908080601f0160208091040260200160405190810160405280939291908181526020018383808284376000920191909152509295506106c1945050505050565b60405180858152602001848152602001806020018362ffffff1662ffffff168152602001828103825284818151815260200191508051906020019080838360005b838110156102155781810151838201526020016101fd565b50505050905090810190601f1680156102425780820380516001836020036101000a031916815260200191505b509550505050505060405180910390f35b6103026004803603606081101561026957600080fd5b8135919081019060408101602082013564010000000081111561028b57600080fd5b82018360208201111561029d57600080fd5b803590602001918460018302840111640100000000831117156102bf57600080fd5b91908080601f01602080910402602001604051908101604052809392919081815260200183838082843760009201919091525092955050913592506109e0915050565b005b61030c610b70565b6040805162ffffff9092168252519081900360200190f35b6101bc6004803603604081101561033a57600080fd5b8135919081019060408101602082013564010000000081111561035c57600080fd5b82018360208201111561036e57600080fd5b8035906020019184600183028401116401000000008311171561039057600080fd5b91908080601f016020809104026020016040519081016040528093929190818152602001838380828437600092019190915250929550610b77945050505050565b6103d9610f8d565b6040805160ff9092168252519081900360200190f35b6104116004803603602081101561040557600080fd5b503562ffffff16610f93565b6040805192835290151560208301528051918290030190f35b6103026004803603602081101561044057600080fd5b5035610ff2565b6103026004803603608081101561045d57600080fd5b81359160208101359181019060608101604082013564010000000081111561048457600080fd5b82018360208201111561049657600080fd5b803590602001918460018302840111640100000000831117156104b857600080fd5b91908080601f016020809104026020016040519081016040528093929190818152602001838380828437600092019190915250929594936020810193503591505064010000000081111561050b57600080fd5b82018360208201111561051d57600080fd5b8035906020019184600183028401116401000000008311171561053f57600080fd5b91908080601f016020809104026020016040519081016040528093929190818152602001838380828437600092019190915250929550611164945050505050565b6103d961163c565b6104116004803603602081101561059e57600080fd5b5035611642565b6103d9611738565b610302600480360360208110156105c357600080fd5b503561173e565b610677600480360360408110156105e057600080fd5b8135919081019060408101602082013564010000000081111561060257600080fd5b82018360208201111561061457600080fd5b8035906020019184600183028401116401000000008311171561063657600080fd5b91908080601f0160208091040260200160405190810160405280939291908181526020018383808284376000920191909152509295506117c2945050505050565b60408051918252519081900360200190f35b6103026004803603608081101561069f57600080fd5b5060ff81358116916020810135821691604082013581169160600135166117df565b600080606060006106f585604080519081016040528060098152602001600080516020611ed68339815191528152506118e6565b1561082b576004805460ff881690811061070b57fe5b90600052602060002090600402016000015460048760ff1681548110151561072f57fe5b90600052602060002090600402016001015460048860ff1681548110151561075357fe5b906000526020600020906004020160020160048960ff1681548110151561077657fe5b600091825260209182902060036004909202010154825460408051601f6002600019600186161561010002019094169390930492830185900485028101850190915281815262ffffff909216928491908301828280156108175780601f106107ec57610100808354040283529160200191610817565b820191906000526020600020905b8154815290600101906020018083116107fa57829003601f168201915b5050505050915093509350935093506109d7565b610858856040805190810160405280600e8152602001600080516020611ef68339815191528152506118e6565b156108d9576005805460ff881690811061086e57fe5b90600052602060002090600402016000015460058760ff1681548110151561089257fe5b90600052602060002090600402016001015460058860ff168154811015156108b657fe5b906000526020600020906004020160020160058960ff1681548110151561077657fe5b61090685604080519081016040528060078152602001600080516020611e4c8339815191528152506118e6565b15610987576006805460ff881690811061091c57fe5b90600052602060002090600402016000015460068760ff1681548110151561094057fe5b90600052602060002090600402016001015460068860ff1681548110151561096457fe5b906000526020600020906004020160020160068960ff1681548110151561077657fe5b6040805160e560020a62461bcd02815260206004820152601760248201527f496e76616c69642043616e64696461637920496e707574000000000000000000604482015290519081900360640190fd5b92959194509250565b60025442108015906109f457506003544211155b1515610a4a576040805160e560020a62461bcd02815260206004820152601160248201527f566f74696e672050726f68696269746564000000000000000000000000000000604482015290519081900360640190fd5b806000610a5682611642565b915050600181151514610ab3576040805160e560020a62461bcd02815260206004820152601960248201527f596f7520617265206e6f7420612056616c696420566f74657200000000000000604482015290519081900360640190fd5b610ae084604080519081016040528060098152602001600080516020611ed68339815191528152506118e6565b15610af357610aee856119cd565b610b69565b610b20846040805190810160405280600e8152602001600080516020611ef68339815191528152506118e6565b15610b2e57610aee85611a53565b610b5b84604080519081016040528060078152602001600080516020611e4c8339815191528152506118e6565b1561098757610aee85611ad9565b5050505050565b6007545b90565b60008060606000610bab85604080519081016040528060098152602001600080516020611ed68339815191528152506118e6565b15610ce757610cda866004805480602002602001604051908101604052809291908181526020016000905b82821015610cd15783829060005260206000209060040201608060405190810160405290816000820154815260200160018201548152602001600282018054600181600116156101000203166002900480601f016020809104026020016040519081016040528092919081815260200182805460018160011615610100020316600290048015610ca75780601f10610c7c57610100808354040283529160200191610ca7565b820191906000526020600020905b815481529060010190602001808311610c8a57829003601f168201915b50505091835250506003919091015462ffffff166020918201529082526001929092019101610bd6565b50505050611b5f565b93509350935093506109d7565b610d14856040805190810160405280600e8152602001600080516020611ef68339815191528152506118e6565b15610e3a57610cda866005805480602002602001604051908101604052809291908181526020016000905b82821015610cd15783829060005260206000209060040201608060405190810160405290816000820154815260200160018201548152602001600282018054600181600116156101000203166002900480601f016020809104026020016040519081016040528092919081815260200182805460018160011615610100020316600290048015610e105780601f10610de557610100808354040283529160200191610e10565b820191906000526020600020905b815481529060010190602001808311610df357829003601f168201915b50505091835250506003919091015462ffffff166020918201529082526001929092019101610d3f565b610e6785604080519081016040528060078152602001600080516020611e4c8339815191528152506118e6565b1561098757610cda866006805480602002602001604051908101604052809291908181526020016000905b82821015610cd15783829060005260206000209060040201608060405190810160405290816000820154815260200160018201548152602001600282018054600181600116156101000203166002900480601f016020809104026020016040519081016040528092919081815260200182805460018160011615610100020316600290048015610f635780601f10610f3857610100808354040283529160200191610f63565b820191906000526020600020905b815481529060010190602001808311610f4657829003601f168201915b50505091835250506003919091015462ffffff166020918201529082526001929092019101610e92565b60045490565b60008060078362ffffff16815481101515610faa57fe5b90600052602060002090600202016000015460078462ffffff16815481101515610fd057fe5b600091825260209091206001600290920201015490925060ff1690505b915091565b600054421080159061100657506001544211155b151561105c576040805160e560020a62461bcd02815260206004820152601760248201527f526567697374726174696f6e2050726f68696269746564000000000000000000604482015290519081900360640190fd5b8060005b60075462ffffff821610156110dd578160078262ffffff1681548110151561108457fe5b600091825260209091206002909102015414156110d55760405160e560020a62461bcd028152600401808060200182810382526025815260200180611f166025913960400191505060405180910390fd5b600101611060565b50506040805180820190915290815260016020820181815260078054928301815560005291517fa66cc928b5edb82af9bd49922954155ab7b0942694bea4ce44661d9a8736c68860029092029182015590517fa66cc928b5edb82af9bd49922954155ab7b0942694bea4ce44661d9a8736c689909101805460ff1916911515919091179055565b600054421080159061117857506001544211155b15156111ce576040805160e560020a62461bcd02815260206004820152601760248201527f526567697374726174696f6e2050726f68696269746564000000000000000000604482015290519081900360640190fd5b8360005b60045460ff8216101561124b578160048260ff168154811015156111f257fe5b600091825260209091206004909102015414156112435760405160e560020a62461bcd028152600401808060200182810382526036815260200180611e6c6036913960400191505060405180910390fd5b6001016111d2565b5060005b60055460ff821610156112c8578160058260ff1681548110151561126f57fe5b600091825260209091206004909102015414156112c05760405160e560020a62461bcd02815260040180806020018281038252603b815260200180611e11603b913960400191505060405180910390fd5b60010161124f565b5060005b60065460ff82161015611345578160068260ff168154811015156112ec57fe5b6000918252602090912060049091020154141561133d5760405160e560020a62461bcd028152600401808060200182810382526034815260200180611ea26034913960400191505060405180910390fd5b6001016112cc565b5061137382604080519081016040528060098152602001600080516020611ed68339815191528152506118e6565b1561145a57604080516080810182528681526020808201878152928201868152600060608401819052600480546001810180835592829052855191027f8a35acfbc15ff81a39ae7d344fd709f28e8600b4aa8c65c6b64bfe7fe36bd19b810191825595517f8a35acfbc15ff81a39ae7d344fd709f28e8600b4aa8c65c6b64bfe7fe36bd19c8701559151805191959293611432937f8a35acfbc15ff81a39ae7d344fd709f28e8600b4aa8c65c6b64bfe7fe36bd19d0192910190611c67565b50606091909101516003909101805462ffffff191662ffffff90921691909117905550610b69565b611487826040805190810160405280600e8152602001600080516020611ef68339815191528152506118e6565b1561154b57604080516080810182528681526020808201878152928201868152600060608401819052600580546001810180835591909252845160049092027f036b6384b5eca791c62761152d0c79bb0604c104a5fb6f4eb0703f3154bb3db0810192835595517f036b6384b5eca791c62761152d0c79bb0604c104a5fb6f4eb0703f3154bb3db18701559151805192959193611432937f036b6384b5eca791c62761152d0c79bb0604c104a5fb6f4eb0703f3154bb3db290930192910190611c67565b61157882604080519081016040528060078152602001600080516020611e4c8339815191528152506118e6565b1561098757604080516080810182528681526020808201878152928201868152600060608401819052600680546001810180835591909252845160049092027ff652222313e28459528d920b65115c16c04f3efc82aaedc97be59f3f377c0d3f810192835595517ff652222313e28459528d920b65115c16c04f3efc82aaedc97be59f3f377c0d408701559151805192959193611432937ff652222313e28459528d920b65115c16c04f3efc82aaedc97be59f3f377c0d4190930192910190611c67565b60055490565b600080805b60075462ffffff821610156116e7578360078262ffffff1681548110151561166b57fe5b90600052602060002090600202016000015414156116df576007805462ffffff831690811061169657fe5b90600052602060002090600202016000015460078262ffffff168154811015156116bc57fe5b600091825260209091206001600290920201015490935060ff169150610fed9050565b600101611647565b506040805160e560020a62461bcd02815260206004820152601260248201527f556e7265676973746572656420566f7465720000000000000000000000000000604482015290519081900360640190fd5b60065490565b60005b60075462ffffff821610156117be578160078262ffffff1681548110151561176557fe5b90600052602060002090600202016000015414156117b657600060078262ffffff1681548110151561179357fe5b60009182526020909120600290910201600101805460ff19169115159190911790555b600101611741565b5050565b6000806117cf8484610b77565b62ffffff16979650505050505050565b60085473ffffffffffffffffffffffffffffffffffffffff1633146118385760405160e560020a62461bcd028152600401808060200182810382526024815260200180611ded6024913960400191505060405180910390fd5b6040805180820182524262ffffff6201518060ff808a16820283168481018087528a831684028516868101602098890181905260009283556001558851808a019099528a841685028616878101808b52948b169095029095169586019790960187905260029190915560039590955590929091906118b890600490611ce5565b6118c460056000611ce5565b6118d060066000611ce5565b6118dc60076000611d09565b5050505050505050565b6000816040516020018082805190602001908083835b6020831061191b5780518252601f1990920191602091820191016118fc565b6001836020036101000a03801982511681845116808217855250505050505090500191505060405160208183030381529060405280519060200120836040516020018082805190602001908083835b602083106119895780518252601f19909201916020918201910161196a565b6001836020036101000a0380198251168184511680821785525050505050509050019150506040516020818303038152906040528051906020012014905092915050565b60005b60045460ff821610156117be578160048260ff168154811015156119f057fe5b9060005260206000209060040201600001541415611a4b57600160048260ff16815481101515611a1c57fe5b60009182526020909120600490910201600301805462ffffff19811662ffffff91821693909301169190911790555b6001016119d0565b60005b60055460ff821610156117be578160058260ff16815481101515611a7657fe5b9060005260206000209060040201600001541415611ad157600160058260ff16815481101515611aa257fe5b60009182526020909120600490910201600301805462ffffff19811662ffffff91821693909301169190911790555b600101611a56565b60005b60065460ff821610156117be578160068260ff16815481101515611afc57fe5b9060005260206000209060040201600001541415611b5757600160068260ff16815481101515611b2857fe5b60009182526020909120600490910201600301805462ffffff19811662ffffff91821693909301169190911790555b600101611adc565b600080606081805b8551811015611c1657868682815181101515611b7f57fe5b60209081029091010151511415611c0e578581815181101515611b9e57fe5b60209081029091010151518651879083908110611bb757fe5b90602001906020020151602001518783815181101515611bd357fe5b90602001906020020151604001518884815181101515611bef57fe5b90602001906020020151606001518191509450945094509450506109d7565b600101611b67565b506040805160e560020a62461bcd02815260206004820152601660248201527f556e726567697374657265642043616e64696461746500000000000000000000604482015290519081900360640190fd5b828054600181600116156101000203166002900490600052602060002090601f016020900481019282601f10611ca857805160ff1916838001178555611cd5565b82800160010185558215611cd5579182015b82811115611cd5578251825591602001919060010190611cba565b50611ce1929150611d2a565b5090565b5080546000825560040290600052602060002090810190611d069190611d44565b50565b5080546000825560020290600052602060002090810190611d069190611d82565b610b7491905b80821115611ce15760008155600101611d30565b610b7491905b80821115611ce157600080825560018201819055611d6b6002830182611da8565b5060038101805462ffffff19169055600401611d4a565b610b7491905b80821115611ce1576000815560018101805460ff19169055600201611d88565b50805460018160011615610100020316600290046000825580601f10611dce5750611d06565b601f016020900490600052602060002090810190611d069190611d2a56fe596f7520646f6e277420686176652061646d696e697374726174696f6e20726967687473596f752061726520616c726561647920726567697374657265642061732061205669636520507265736964656e7469616c2043616e64696461746553656e61746f7200000000000000000000000000000000000000000000000000596f752061726520616c72656164792072656769737465726564206173206120507265736964656e7469616c2043616e646964617465596f752061726520616c7265616479207265676973746572656420617320612053656e61746f7269616c2043616e646964617465507265736964656e7400000000000000000000000000000000000000000000005669636520507265736964656e74000000000000000000000000000000000000596f752061726520616c72656164792072656769737465726564206173206120766f746572a165627a7a72305820781d48ee4aade665052a96016b15341433f1035ac8c70129359d507b08b371170029",
  "source": "pragma solidity 0.5.4;\r\n\r\ncontract VotingSystem {\r\n\r\n    struct Voter {\r\n        bytes32 name;\r\n        // add more information\r\n\r\n        bool validity;\r\n    }\r\n\r\n    struct Candidate {\r\n        bytes32 name;\r\n        bytes32 partyList;\r\n        // add more information\r\n\r\n        string imgHash;\r\n        // Improvement:\r\n        //\r\n        // imgHash {\r\n        //      bytes32 hash\r\n        //      uint8 hash_function\r\n        //      uint8 size\r\n        // }\r\n\r\n        uint24 votes;\r\n    }\r\n\r\n    struct TimeFrame {\r\n        uint256 start;\r\n        uint256 end;\r\n    }\r\n\r\n    TimeFrame registrationPhase;\r\n    TimeFrame votingPhase;\r\n\r\n    Candidate[] presCandidates;\r\n    Candidate[] vicePresCandidates;\r\n    Candidate[] senCandidates;\r\n\r\n    Voter[] voters;\r\n\r\n    address electionAdmin;\r\n\r\n    modifier onlyElectionAdmin() {\r\n        require(electionAdmin == msg.sender, \"You don't have administration rights\");\r\n        _;\r\n    }\r\n\r\n    modifier onlyUnregisteredVoter(bytes32 _voterName) {\r\n        for (uint24 i = 0; i < voters.length; i++) {\r\n            require(voters[i].name != _voterName, 'You are already registered as a voter');\r\n        }\r\n        _;\r\n    }\r\n\r\n    modifier onlyUnregisteredCandidate(bytes32 _candidateName) {\r\n\r\n        for (uint8 i = 0; i < presCandidates.length; i++) {\r\n            require(presCandidates[i].name != _candidateName,\r\n                    'You are already registered as a Presidential Candidate');\r\n        }\r\n\r\n        for (uint8 i = 0; i < vicePresCandidates.length; i++) {\r\n            require(vicePresCandidates[i].name != _candidateName,\r\n                    'You are already registered as a Vice Presidential Candidate');\r\n        }\r\n\r\n        for (uint8 i = 0; i < senCandidates.length; i++) {\r\n            require(senCandidates[i].name != _candidateName,\r\n                    'You are already registered as a Senatorial Candidate');\r\n        }\r\n        _;\r\n    }\r\n\r\n    modifier onlyOnRegistrationTimeFrame() {\r\n        require(\r\n            registrationPhase.start <= now &&\r\n            now <= registrationPhase.end,\r\n            \"Registration Prohibited\"\r\n        );\r\n        _;\r\n    }\r\n\r\n    modifier onlyOnVotingTimeFrame() {\r\n        require(\r\n            votingPhase.start <= now &&\r\n            now <= votingPhase.end,\r\n            \"Voting Prohibited\"\r\n        );\r\n        _;\r\n    }\r\n\r\n    modifier onlyValidVoter(bytes32 _voterName) {\r\n        (, bool valid) = getVoterByName(_voterName);\r\n\r\n        require(\r\n            valid == true,\r\n            \"You are not a Valid Voter\"\r\n        );\r\n        _;\r\n    }\r\n\r\n    constructor(uint8 daysTillRegistrationStart, uint8 daysTillRegistrationEnd,\r\n                uint8 daysTillVotingStart, uint8 dayTillsVotingEnd) public {\r\n\r\n        uint256 registrationStart = daysTillRegistrationStart * 1 days;\r\n        uint256 registrationEnd = daysTillRegistrationEnd * 1 days;\r\n\r\n        uint256 votingStart = daysTillVotingStart * 1 days;\r\n        uint256 votingEnd = dayTillsVotingEnd * 1 days;\r\n\r\n        registrationPhase = TimeFrame(now + registrationStart, now + registrationEnd);\r\n        votingPhase = TimeFrame(now + votingStart, now + votingEnd);\r\n        electionAdmin = msg.sender;\r\n    }\r\n\r\n    function resetElection(uint8 daysTillRegistrationStart, uint8 daysTillRegistrationEnd,\r\n                           uint8 daysTillVotingStart, uint8 dayTillsVotingEnd) public onlyElectionAdmin {\r\n\r\n        uint256 registrationStart = daysTillRegistrationStart * 1 days;\r\n        uint256 registrationEnd = daysTillRegistrationEnd * 1 days;\r\n\r\n        uint256 votingStart = daysTillVotingStart * 1 days;\r\n        uint256 votingEnd = dayTillsVotingEnd * 1 days;\r\n\r\n        registrationPhase = TimeFrame(now + registrationStart, now + registrationEnd);\r\n        votingPhase = TimeFrame(now + votingStart, now + votingEnd);\r\n\r\n        delete presCandidates;\r\n        delete vicePresCandidates;\r\n        delete senCandidates;\r\n        delete voters;\r\n    }\r\n\r\n    function registerCandidate(bytes32 _name, bytes32 _partyList, string memory _imgHash, string memory _candidacy)\r\n        public\r\n        onlyOnRegistrationTimeFrame\r\n        onlyUnregisteredCandidate(_name)\r\n    {\r\n        if (strEquals(_candidacy, 'President')) {\r\n            presCandidates.push(Candidate(_name, _partyList, _imgHash, 0));\r\n        }\r\n        else if (strEquals(_candidacy, 'Vice President')) {\r\n            vicePresCandidates.push(Candidate(_name, _partyList, _imgHash, 0));\r\n        }\r\n        else if (strEquals(_candidacy, 'Senator')) {\r\n            senCandidates.push(Candidate(_name, _partyList, _imgHash, 0));\r\n        }\r\n        else {\r\n            revert('Invalid Candidacy Input');\r\n        }\r\n    }\r\n\r\n    function registerVoter(bytes32 _name)\r\n        public\r\n        onlyOnRegistrationTimeFrame\r\n        onlyUnregisteredVoter(_name)\r\n    {\r\n        voters.push(Voter(_name, true));\r\n    }\r\n\r\n    function votePresident(bytes32 _candidateName) private  {\r\n        for (uint8 i = 0; i < presCandidates.length; i++) {\r\n            if (presCandidates[i].name == _candidateName) {\r\n                presCandidates[i].votes += 1;\r\n            }\r\n        }\r\n    }\r\n\r\n    function voteVicePresident(bytes32 _candidateName) private {\r\n        for (uint8 i = 0; i < vicePresCandidates.length; i++) {\r\n            if (vicePresCandidates[i].name == _candidateName) {\r\n                vicePresCandidates[i].votes += 1;\r\n            }\r\n        }\r\n    }\r\n\r\n    function voteSenator(bytes32 _candidateName) private {\r\n        for (uint8 i = 0; i < senCandidates.length; i++) {\r\n            if (senCandidates[i].name == _candidateName) {\r\n                senCandidates[i].votes += 1;\r\n            }\r\n        }\r\n    }\r\n\r\n    function voteCandidate(bytes32 _candidateName, string memory _candidacy, bytes32 _voterName)\r\n        public\r\n        onlyOnVotingTimeFrame\r\n        onlyValidVoter(_voterName)\r\n    {\r\n        if (strEquals(_candidacy, 'President'))\r\n        {\r\n            votePresident(_candidateName);\r\n        }\r\n        else if (strEquals(_candidacy, 'Vice President')) {\r\n            voteVicePresident(_candidateName);\r\n        }\r\n        else if (strEquals(_candidacy, 'Senator')) {\r\n            voteSenator(_candidateName);\r\n        }\r\n        else {\r\n            revert('Invalid Candidacy Input');\r\n        }\r\n    }\r\n\r\n    function getCandidateByIndex(uint8 _index, string memory _candidacy)\r\n        public\r\n        view\r\n        returns (bytes32, bytes32, string memory, uint24)\r\n    {\r\n        if (strEquals(_candidacy, 'President'))\r\n        {\r\n            return\r\n            (\r\n                presCandidates[_index].name,\r\n                presCandidates[_index].partyList,\r\n                presCandidates[_index].imgHash,\r\n                presCandidates[_index].votes\r\n            );\r\n        }\r\n        else if (strEquals(_candidacy, 'Vice President'))\r\n        {\r\n            return\r\n            (\r\n                vicePresCandidates[_index].name,\r\n                vicePresCandidates[_index].partyList,\r\n                vicePresCandidates[_index].imgHash,\r\n                vicePresCandidates[_index].votes\r\n            );\r\n        }\r\n        else if (strEquals(_candidacy, 'Senator'))\r\n        {\r\n            return\r\n            (\r\n                senCandidates[_index].name,\r\n                senCandidates[_index].partyList,\r\n                senCandidates[_index].imgHash,\r\n                senCandidates[_index].votes\r\n            );\r\n        }\r\n        else {\r\n            revert('Invalid Candidacy Input');\r\n        }\r\n    }\r\n\r\n    function getCandidateByName(bytes32 _name, string memory _candidacy)\r\n        public\r\n        view\r\n        returns (bytes32, bytes32, string memory, uint24)\r\n    {\r\n        if (strEquals(_candidacy, 'President')) {\r\n            return getCandidateFromList(_name, presCandidates);\r\n        }\r\n        else if (strEquals(_candidacy, 'Vice President')) {\r\n            return getCandidateFromList(_name, vicePresCandidates);\r\n        }\r\n        else if (strEquals(_candidacy, 'Senator'))\r\n        {\r\n            return getCandidateFromList(_name, senCandidates);\r\n        }\r\n        else {\r\n            revert('Invalid Candidacy Input');\r\n        }\r\n    }\r\n\r\n    function getPresCount() public view returns (uint8) {\r\n        return uint8(presCandidates.length);\r\n    }\r\n\r\n    function getVicePresCount() public view returns (uint8)\r\n    {\r\n        return uint8(vicePresCandidates.length);\r\n    }\r\n\r\n    function getSenCount() public view returns (uint8) {\r\n        return uint8(senCandidates.length);\r\n    }\r\n\r\n    function getVotes(bytes32 _name, string memory _candidacy)\r\n        public\r\n        view\r\n        returns (uint256)\r\n    {\r\n        (, , , uint24 votes) = getCandidateByName(_name, _candidacy);\r\n        return votes;\r\n    }\r\n\r\n    function getVoterByIndex(uint24 _index)\r\n        public\r\n        view\r\n        returns (bytes32, bool)\r\n    {\r\n\r\n        return\r\n        (\r\n            voters[_index].name,\r\n            voters[_index].validity\r\n        );\r\n\r\n    }\r\n\r\n    function getVoterByName(bytes32 _name)\r\n        public\r\n        view\r\n        returns (bytes32, bool)\r\n    {\r\n        for (uint24 i = 0; i < voters.length; i++) {\r\n            if (voters[i].name == _name) {\r\n\r\n                return\r\n                (\r\n                    voters[i].name,\r\n                    voters[i].validity\r\n                );\r\n\r\n            }\r\n        }\r\n        revert('Unregistered Voter');\r\n    }\r\n\r\n    function getVoterCount()\r\n        public\r\n        view\r\n        returns (uint24)\r\n    {\r\n        return uint24(voters.length);\r\n    }\r\n\r\n    function invalidateVoter(bytes32 _voterName) public {\r\n        for (uint24 i = 0; i < voters.length; i++) {\r\n            if (voters[i].name == _voterName) {\r\n                voters[i].validity = false;\r\n            }\r\n        }\r\n    }\r\n\r\n    function getCandidateFromList(bytes32 _name, Candidate[] memory _candidateList)\r\n        private\r\n        pure\r\n        returns (bytes32, bytes32, string memory, uint24)\r\n    {\r\n        for (uint256 i = 0; i < _candidateList.length; i++) {\r\n            if (_candidateList[i].name == _name) {\r\n                return\r\n                (\r\n                    _candidateList[i].name,\r\n                    _candidateList[i].partyList,\r\n                    _candidateList[i].imgHash,\r\n                    _candidateList[i].votes\r\n                );\r\n            }\r\n        }\r\n        revert('Unregistered Candidate');\r\n    }\r\n\r\n    function strEquals(string memory a, string memory b) private pure returns (bool) {\r\n        return keccak256(abi.encodePacked(a)) == keccak256(abi.encodePacked(b));\r\n    }\r\n}",
  "sourcePath": "D:/ProgrammingZone/dapp-voting-system/contracts/VotingSystem.sol",
  "compiler": {
    "name": "solc",
    "version": "0.5.4+commit.9549d8ff.Emscripten.clang"
  },
  "schemaVersion": "3.0.11",
  "updatedAt": "2019-06-27T09:02:27.080Z",
  "devdoc": {
    "methods": {}
  },
  "userdoc": {
    "methods": {}
  }
}