{
  "contractName": "VotingSystem",
  "abi": [
    {
      "constant": false,
      "inputs": [
        {
          "name": "name",
          "type": "string"
        }
      ],
      "name": "registerCandidate",
      "outputs": [],
      "payable": false,
      "stateMutability": "nonpayable",
      "type": "function"
    },
    {
      "constant": true,
      "inputs": [
        {
          "name": "name",
          "type": "string"
        }
      ],
      "name": "getCandidate",
      "outputs": [
        {
          "name": "",
          "type": "string"
        }
      ],
      "payable": false,
      "stateMutability": "view",
      "type": "function"
    },
    {
      "constant": false,
      "inputs": [
        {
          "name": "name",
          "type": "string"
        }
      ],
      "name": "registerVoter",
      "outputs": [],
      "payable": false,
      "stateMutability": "nonpayable",
      "type": "function"
    },
    {
      "constant": false,
      "inputs": [
        {
          "name": "candidateName",
          "type": "string"
        },
        {
          "name": "voterName",
          "type": "string"
        }
      ],
      "name": "voteCandidate",
      "outputs": [],
      "payable": false,
      "stateMutability": "nonpayable",
      "type": "function"
    },
    {
      "constant": true,
      "inputs": [
        {
          "name": "name",
          "type": "string"
        }
      ],
      "name": "getVotes",
      "outputs": [
        {
          "name": "",
          "type": "uint256"
        }
      ],
      "payable": false,
      "stateMutability": "view",
      "type": "function"
    }
  ],
  "bytecode": "0x608060405260408051908101604052806000815260200160008152506002600082015181600001556020820151816001015550506040805190810160405280600081526020016000815250600460008201518160000155602082015181600101555050604080519081016040528060008152602001600081525060066000820151816000015560208201518160010155505034801561009d57600080fd5b50610924806100ad6000396000f3fe608060405234801561001057600080fd5b5060043610610074576000357c01000000000000000000000000000000000000000000000000000000009004806301757f7b146100795780636428a486146101cb578063805265e5146102865780639eb88db614610355578063f276669d14610410575b600080fd5b6101c96004803603604081101561008f57600080fd5b81019080803590602001906401000000008111156100ac57600080fd5b8201836020820111156100be57600080fd5b803590602001918460018302840111640100000000831117156100e057600080fd5b91908080601f016020809104026020016040519081016040528093929190818152602001838380828437600081840152601f19601f8201169050808301925050505050505091929192908035906020019064010000000081111561014357600080fd5b82018360208201111561015557600080fd5b8035906020019184600183028401116401000000008311171561017757600080fd5b91908080601f016020809104026020016040519081016040528093929190818152602001838380828437600081840152601f19601f820116905080830192505050505050509192919290505050610544565b005b610284600480360360208110156101e157600080fd5b81019080803590602001906401000000008111156101fe57600080fd5b82018360208201111561021057600080fd5b8035906020019184600183028401116401000000008311171561023257600080fd5b91908080601f016020809104026020016040519081016040528093929190818152602001838380828437600081840152601f19601f82011690508083019250505050505050919291929050505061061d565b005b61033f6004803603602081101561029c57600080fd5b81019080803590602001906401000000008111156102b957600080fd5b8201836020820111156102cb57600080fd5b803590602001918460018302840111640100000000831117156102ed57600080fd5b91908080601f016020809104026020016040519081016040528093929190818152602001838380828437600081840152601f19601f820116905080830192505050505050509192919290505050610693565b6040518082815260200191505060405180910390f35b61040e6004803603602081101561036b57600080fd5b810190808035906020019064010000000081111561038857600080fd5b82018360208201111561039a57600080fd5b803590602001918460018302840111640100000000831117156103bc57600080fd5b91908080601f016020809104026020016040519081016040528093929190818152602001838380828437600081840152601f19601f8201169050808301925050505050505091929192905050506106ba565b005b6104c96004803603602081101561042657600080fd5b810190808035906020019064010000000081111561044357600080fd5b82018360208201111561045557600080fd5b8035906020019184600183028401116401000000008311171561047757600080fd5b91908080601f016020809104026020016040519081016040528093929190818152602001838380828437600081840152601f19601f820116905080830192505050505050509192919290505050610717565b6040518080602001828103825283818151815260200191508051906020019080838360005b838110156105095780820151818401526020810190506104ee565b50505050905090810190601f1680156105365780820380516001836020036101000a031916815260200191505b509250505060405180910390f35b806001151560016000610556846107d6565b815260200190815260200160002060010160009054906101000a900460ff1615151415156105ec576040517f08c379a00000000000000000000000000000000000000000000000000000000081526004018080602001828103825260198152602001807f596f7520617265206e6f7420612056616c696420566f7465720000000000000081525060200191505060405180910390fd5b60016000806105fa866107d6565b815260200190815260200160002060010160008282540192505081905550505050565b60408051908101604052808281526020016001151581525060016000610642846107d6565b8152602001908152602001600020600082015181600001908051906020019061066c929190610853565b5060208201518160010160006101000a81548160ff02191690831515021790555090505050565b60008060006106a1846107d6565b8152602001908152602001600020600101549050919050565b604080519081016040528082815260200160008152506000806106dc846107d6565b81526020019081526020016000206000820151816000019080519060200190610706929190610853565b506020820151816001015590505050565b6060600080610725846107d6565b81526020019081526020016000206000018054600181600116156101000203166002900480601f0160208091040260200160405190810160405280929190818152602001828054600181600116156101000203166002900480156107ca5780601f1061079f576101008083540402835291602001916107ca565b820191906000526020600020905b8154815290600101906020018083116107ad57829003601f168201915b50505050509050919050565b6000816040516020018082805190602001908083835b60208310151561081157805182526020820191506020810190506020830392506107ec565b6001836020036101000a038019825116818451168082178552505050505050905001915050604051602081830303815290604052805190602001209050919050565b828054600181600116156101000203166002900490600052602060002090601f016020900481019282601f1061089457805160ff19168380011785556108c2565b828001600101855582156108c2579182015b828111156108c15782518255916020019190600101906108a6565b5b5090506108cf91906108d3565b5090565b6108f591905b808211156108f15760008160009055506001016108d9565b5090565b9056fea165627a7a723058203c4da9c4f331cbc45ecc323f12f8763fb320025430e79eff76c41780981098640029",
  "source": "pragma solidity 0.5.4;\r\n\r\ncontract VotingSystem {\r\n\r\n    struct Voter {\r\n        string name;\r\n        // add more information\r\n\r\n        bool valid;\r\n    }\r\n\r\n    struct Candidate {\r\n        string name;\r\n        // add more information\r\n\r\n        uint votes;\r\n    }\r\n\r\n    struct TimeFrame {\r\n        uint256 start;\r\n        uint256 end;\r\n    }\r\n\r\n    mapping (bytes32 => Candidate) candidates;\r\n    mapping (bytes32 => Voter) voters;\r\n    TimeFrame candidateRegistration = TimeFrame(0, 0);\r\n    TimeFrame voterRegistration = TimeFrame(0, 0);\r\n    TimeFrame votingTimeFrame = TimeFrame(0, 0);\r\n\r\n    modifier onlyOnCandidateRegistrationTimeFrame() {\r\n        require(\r\n            candidateRegistration.start <= now &&\r\n            now <= candidateRegistration.end,\r\n            \"Candidates Registration Prohibited\"\r\n        );\r\n        _;\r\n    }\r\n\r\n    modifier onlyOnVoterRegistrationTimeFrame() {\r\n        require(\r\n            voterRegistration.start <= now &&\r\n            now <= voterRegistration.end,\r\n            \"Voters Registration Prohibited\"\r\n        );\r\n        _;\r\n    }\r\n\r\n    modifier onlyOnVotingTimeFrame() {\r\n        require(\r\n            votingTimeFrame.start <= now &&\r\n            now <= votingTimeFrame.end,\r\n            \"Voting Prohibited\"\r\n        );\r\n        _;\r\n    }\r\n\r\n    modifier onlyValidVoter(string memory voterName) {\r\n        require(\r\n            voters[strHash(voterName)].valid == true,\r\n            \"You are not a Valid Voter\"\r\n        );\r\n        _;\r\n    }\r\n\r\n    // Kill Contract on Election End;\r\n\r\n    function registerCandidate(string memory name) public // onlyOnCandidateRegistrationTimeFrame\r\n    {\r\n        candidates[strHash(name)] = Candidate(name, 0);\r\n    }\r\n\r\n    function getCandidate(string memory name) public view returns (string memory)\r\n    {\r\n        return candidates[strHash(name)].name;\r\n    }\r\n\r\n    function registerVoter(string memory name) public // onlyOnVoterRegistrationTimeFrame\r\n    {\r\n        voters[strHash(name)] = Voter(name, true);\r\n    }\r\n\r\n    function voteCandidate(string memory candidateName, string memory voterName)\r\n        public\r\n        onlyValidVoter(voterName)\r\n    // onlyOnVotingTimeFrame\r\n    {\r\n        candidates[strHash(candidateName)].votes += 1;\r\n    }\r\n\r\n    function getVotes(string memory name) public view returns (uint256) {\r\n        return candidates[strHash(name)].votes;\r\n    }\r\n\r\n    function strHash(string memory str) private pure returns (bytes32) {\r\n        return keccak256(abi.encodePacked(str));\r\n    }\r\n}",
  "sourcePath": "D:/ProgrammingZone/dapp-voting-system/contracts/VotingSystem.sol",
  "compiler": {
    "name": "solc",
    "version": "0.5.4+commit.9549d8ff.Emscripten.clang"
  },
  "schemaVersion": "3.0.11",
  "updatedAt": "2019-06-19T07:18:17.677Z",
  "devdoc": {
    "methods": {}
  },
  "userdoc": {
    "methods": {}
  }
}