{
  "contractName": "VotingSystem",
  "abi": [
    {
      "constant": false,
      "inputs": [
        {
          "name": "_name",
          "type": "string"
        },
        {
          "name": "_imgHash",
          "type": "string"
        }
      ],
      "name": "registerCandidate",
      "outputs": [],
      "payable": false,
      "stateMutability": "nonpayable",
      "type": "function"
    },
    {
      "constant": false,
      "inputs": [
        {
          "name": "_name",
          "type": "string"
        }
      ],
      "name": "registerVoter",
      "outputs": [],
      "payable": false,
      "stateMutability": "nonpayable",
      "type": "function"
    },
    {
      "constant": false,
      "inputs": [
        {
          "name": "_name",
          "type": "string"
        },
        {
          "name": "_voterName",
          "type": "string"
        }
      ],
      "name": "voteCandidate",
      "outputs": [],
      "payable": false,
      "stateMutability": "nonpayable",
      "type": "function"
    },
    {
      "constant": true,
      "inputs": [
        {
          "name": "_index",
          "type": "uint256"
        }
      ],
      "name": "getCandidateByIndex",
      "outputs": [
        {
          "name": "",
          "type": "string"
        },
        {
          "name": "",
          "type": "string"
        },
        {
          "name": "",
          "type": "uint256"
        }
      ],
      "payable": false,
      "stateMutability": "view",
      "type": "function"
    },
    {
      "constant": true,
      "inputs": [
        {
          "name": "_name",
          "type": "string"
        }
      ],
      "name": "getCandidateByName",
      "outputs": [
        {
          "name": "",
          "type": "string"
        },
        {
          "name": "",
          "type": "string"
        },
        {
          "name": "",
          "type": "uint256"
        }
      ],
      "payable": false,
      "stateMutability": "view",
      "type": "function"
    },
    {
      "constant": true,
      "inputs": [],
      "name": "getCandidateCount",
      "outputs": [
        {
          "name": "",
          "type": "uint256"
        }
      ],
      "payable": false,
      "stateMutability": "view",
      "type": "function"
    },
    {
      "constant": true,
      "inputs": [
        {
          "name": "_name",
          "type": "string"
        }
      ],
      "name": "getVotes",
      "outputs": [
        {
          "name": "",
          "type": "uint256"
        }
      ],
      "payable": false,
      "stateMutability": "view",
      "type": "function"
    },
    {
      "constant": true,
      "inputs": [
        {
          "name": "_index",
          "type": "uint256"
        }
      ],
      "name": "getVoterByIndex",
      "outputs": [
        {
          "name": "",
          "type": "string"
        },
        {
          "name": "",
          "type": "bool"
        }
      ],
      "payable": false,
      "stateMutability": "view",
      "type": "function"
    },
    {
      "constant": true,
      "inputs": [
        {
          "name": "_name",
          "type": "string"
        }
      ],
      "name": "getVoterByName",
      "outputs": [
        {
          "name": "",
          "type": "string"
        },
        {
          "name": "",
          "type": "bool"
        }
      ],
      "payable": false,
      "stateMutability": "view",
      "type": "function"
    },
    {
      "constant": true,
      "inputs": [],
      "name": "getVoterCount",
      "outputs": [
        {
          "name": "",
          "type": "uint256"
        }
      ],
      "payable": false,
      "stateMutability": "view",
      "type": "function"
    }
  ],
  "bytecode": "0x608060405260408051908101604052806000815260200160008152506002600082015181600001556020820151816001015550506040805190810160405280600081526020016000815250600460008201518160000155602082015181600101555050604080519081016040528060008152602001600081525060066000820151816000015560208201518160010155505034801561009d57600080fd5b50611560806100ad6000396000f3fe608060405234801561001057600080fd5b50600436106100bb576000357c0100000000000000000000000000000000000000000000000000000000900480637def7fe1116100835780637def7fe11461045b5780637feac2ac14610602578063805265e514610741578063ab172cf514610810578063e820cad31461092a576100bb565b806301757f7b146100c05780630dbce4dd1461021257806311174a291461036457806330a56347146103825780636428a486146103a0575b600080fd5b610210600480360360408110156100d657600080fd5b81019080803590602001906401000000008111156100f357600080fd5b82018360208201111561010557600080fd5b8035906020019184600183028401116401000000008311171561012757600080fd5b91908080601f016020809104026020016040519081016040528093929190818152602001838380828437600081840152601f19601f8201169050808301925050505050505091929192908035906020019064010000000081111561018a57600080fd5b82018360208201111561019c57600080fd5b803590602001918460018302840111640100000000831117156101be57600080fd5b91908080601f016020809104026020016040519081016040528093929190818152602001838380828437600081840152601f19601f8201169050808301925050505050505091929192905050506109dc565b005b6103626004803603604081101561022857600080fd5b810190808035906020019064010000000081111561024557600080fd5b82018360208201111561025757600080fd5b8035906020019184600183028401116401000000008311171561027957600080fd5b91908080601f016020809104026020016040519081016040528093929190818152602001838380828437600081840152601f19601f820116905080830192505050505050509192919290803590602001906401000000008111156102dc57600080fd5b8201836020820111156102ee57600080fd5b8035906020019184600183028401116401000000008311171561031057600080fd5b91908080601f016020809104026020016040519081016040528093929190818152602001838380828437600081840152601f19601f820116905080830192505050505050509192919290505050610b85565b005b61036c610c1a565b6040518082815260200191505060405180910390f35b61038a610c27565b6040518082815260200191505060405180910390f35b610459600480360360208110156103b657600080fd5b81019080803590602001906401000000008111156103d357600080fd5b8201836020820111156103e557600080fd5b8035906020019184600183028401116401000000008311171561040757600080fd5b91908080601f016020809104026020016040519081016040528093929190818152602001838380828437600081840152601f19601f820116905080830192505050505050509192919290505050610c33565b005b6105146004803603602081101561047157600080fd5b810190808035906020019064010000000081111561048e57600080fd5b8201836020820111156104a057600080fd5b803590602001918460018302840111640100000000831117156104c257600080fd5b91908080601f016020809104026020016040519081016040528093929190818152602001838380828437600081840152601f19601f820116905080830192505050505050509192919290505050610cbb565b604051808060200180602001848152602001838103835286818151815260200191508051906020019080838360005b8381101561055e578082015181840152602081019050610543565b50505050905090810190601f16801561058b5780820380516001836020036101000a031916815260200191505b50838103825285818151815260200191508051906020019080838360005b838110156105c45780820151818401526020810190506105a9565b50505050905090810190601f1680156105f15780820380516001836020036101000a031916815260200191505b509550505050505060405180910390f35b6106bb6004803603602081101561061857600080fd5b810190808035906020019064010000000081111561063557600080fd5b82018360208201111561064757600080fd5b8035906020019184600183028401116401000000008311171561066957600080fd5b91908080601f016020809104026020016040519081016040528093929190818152602001838380828437600081840152601f19601f820116905080830192505050505050509192919290505050610f55565b604051808060200183151515158152602001828103825284818151815260200191508051906020019080838360005b838110156107055780820151818401526020810190506106ea565b50505050905090810190601f1680156107325780820380516001836020036101000a031916815260200191505b50935050505060405180910390f35b6107fa6004803603602081101561075757600080fd5b810190808035906020019064010000000081111561077457600080fd5b82018360208201111561078657600080fd5b803590602001918460018302840111640100000000831117156107a857600080fd5b91908080601f016020809104026020016040519081016040528093929190818152602001838380828437600081840152601f19601f82011690508083019250505050505050919291929050505061113b565b6040518082815260200191505060405180910390f35b61083c6004803603602081101561082657600080fd5b8101908080359060200190929190505050611154565b604051808060200180602001848152602001838103835286818151815260200191508051906020019080838360005b8381101561088657808201518184015260208101905061086b565b50505050905090810190601f1680156108b35780820380516001836020036101000a031916815260200191505b50838103825285818151815260200191508051906020019080838360005b838110156108ec5780820151818401526020810190506108d1565b50505050905090810190601f1680156109195780820380516001836020036101000a031916815260200191505b509550505050505060405180910390f35b6109566004803603602081101561094057600080fd5b81019080803590602001909291905050506112fe565b604051808060200183151515158152602001828103825284818151815260200191508051906020019080838360005b838110156109a0578082015181840152602081019050610985565b50505050905090810190601f1680156109cd5780820380516001836020036101000a031916815260200191505b50935050505060405180910390f35b8060006109e882610f55565b91505060011515811515141515610a67576040517f08c379a00000000000000000000000000000000000000000000000000000000081526004018080602001828103825260198152602001807f596f7520617265206e6f7420612056616c696420566f7465720000000000000081525060200191505060405180910390fd5b60008090505b600080549050811015610b7e57610b3c600082815481101515610a8c57fe5b90600052602060002090600302016000018054600181600116156101000203166002900480601f016020809104026020016040519081016040528092919081815260200182805460018160011615610100020316600290048015610b315780601f10610b0657610100808354040283529160200191610b31565b820191906000526020600020905b815481529060010190602001808311610b1457829003601f168201915b5050505050866113f5565b15610b71576001600082815481101515610b5257fe5b9060005260206000209060030201600201600082825401925050819055505b8080600101915050610a6d565b5050505050565b60006060604051908101604052808481526020018381526020016000815250908060018154018082558091505090600182039060005260206000209060030201600090919290919091506000820151816000019080519060200190610beb92919061148f565b506020820151816001019080519060200190610c0892919061148f565b50604082015181600201555050505050565b6000600180549050905090565b60008080549050905090565b6001604080519081016040528083815260200160011515815250908060018154018082558091505090600182039060005260206000209060020201600090919290919091506000820151816000019080519060200190610c9492919061148f565b5060208201518160010160006101000a81548160ff02191690831515021790555050505050565b606080600080600090505b600080549050811015610f4c57610d95600082815481101515610ce557fe5b90600052602060002090600302016000018054600181600116156101000203166002900480601f016020809104026020016040519081016040528092919081815260200182805460018160011615610100020316600290048015610d8a5780601f10610d5f57610100808354040283529160200191610d8a565b820191906000526020600020905b815481529060010190602001808311610d6d57829003601f168201915b5050505050866113f5565b15610f3f57600081815481101515610da957fe5b9060005260206000209060030201600001600082815481101515610dc957fe5b9060005260206000209060030201600101600083815481101515610de957fe5b906000526020600020906003020160020154828054600181600116156101000203166002900480601f016020809104026020016040519081016040528092919081815260200182805460018160011615610100020316600290048015610e905780601f10610e6557610100808354040283529160200191610e90565b820191906000526020600020905b815481529060010190602001808311610e7357829003601f168201915b50505050509250818054600181600116156101000203166002900480601f016020809104026020016040519081016040528092919081815260200182805460018160011615610100020316600290048015610f2c5780601f10610f0157610100808354040283529160200191610f2c565b820191906000526020600020905b815481529060010190602001808311610f0f57829003601f168201915b5050505050915093509350935050610f4e565b8080600101915050610cc6565b505b9193909250565b6060600080600090505b6001805490508110156111345761102e600182815481101515610f7e57fe5b90600052602060002090600202016000018054600181600116156101000203166002900480601f0160208091040260200160405190810160405280929190818152602001828054600181600116156101000203166002900480156110235780601f10610ff857610100808354040283529160200191611023565b820191906000526020600020905b81548152906001019060200180831161100657829003601f168201915b5050505050856113f5565b156111275760018181548110151561104257fe5b906000526020600020906002020160000160018281548110151561106257fe5b906000526020600020906002020160010160009054906101000a900460ff16818054600181600116156101000203166002900480601f0160208091040260200160405190810160405280929190818152602001828054600181600116156101000203166002900480156111165780601f106110eb57610100808354040283529160200191611116565b820191906000526020600020905b8154815290600101906020018083116110f957829003601f168201915b505050505091509250925050611136565b8080600101915050610f5f565b505b915091565b60008061114783610cbb565b9250505080915050919050565b6060806000808481548110151561116757fe5b906000526020600020906003020160000160008581548110151561118757fe5b90600052602060002090600302016001016000868154811015156111a757fe5b906000526020600020906003020160020154828054600181600116156101000203166002900480601f01602080910402602001604051908101604052809291908181526020018280546001816001161561010002031660029004801561124e5780601f106112235761010080835404028352916020019161124e565b820191906000526020600020905b81548152906001019060200180831161123157829003601f168201915b50505050509250818054600181600116156101000203166002900480601f0160208091040260200160405190810160405280929190818152602001828054600181600116156101000203166002900480156112ea5780601f106112bf576101008083540402835291602001916112ea565b820191906000526020600020905b8154815290600101906020018083116112cd57829003601f168201915b505050505091509250925092509193909250565b6060600060018381548110151561131157fe5b906000526020600020906002020160000160018481548110151561133157fe5b906000526020600020906002020160010160009054906101000a900460ff16818054600181600116156101000203166002900480601f0160208091040260200160405190810160405280929190818152602001828054600181600116156101000203166002900480156113e55780601f106113ba576101008083540402835291602001916113e5565b820191906000526020600020905b8154815290600101906020018083116113c857829003601f168201915b5050505050915091509150915091565b600061140082611412565b61140984611412565b14905092915050565b6000816040516020018082805190602001908083835b60208310151561144d5780518252602082019150602081019050602083039250611428565b6001836020036101000a038019825116818451168082178552505050505050905001915050604051602081830303815290604052805190602001209050919050565b828054600181600116156101000203166002900490600052602060002090601f016020900481019282601f106114d057805160ff19168380011785556114fe565b828001600101855582156114fe579182015b828111156114fd5782518255916020019190600101906114e2565b5b50905061150b919061150f565b5090565b61153191905b8082111561152d576000816000905550600101611515565b5090565b9056fea165627a7a723058205903acaec5486ca152042f1325c8a10291cdaa0506083ea69dda64cdda0b856e0029",
  "source": "pragma solidity 0.5.4;\r\n\r\ncontract VotingSystem {\r\n\r\n    struct Voter {\r\n        string name;\r\n        // add more information\r\n\r\n        bool valid;\r\n    }\r\n\r\n    struct Candidate {\r\n        string name;\r\n        string imgHash;\r\n        // add more information\r\n\r\n        uint votes;\r\n    }\r\n\r\n    struct TimeFrame {\r\n        uint256 start;\r\n        uint256 end;\r\n    }\r\n\r\n    Candidate[] candidates;\r\n    Voter[] voters;\r\n    TimeFrame candidateRegistration = TimeFrame(0, 0);\r\n    TimeFrame voterRegistration = TimeFrame(0, 0);\r\n    TimeFrame votingTimeFrame = TimeFrame(0, 0);\r\n\r\n    modifier onlyOnCandidateRegistrationTimeFrame() {\r\n        require(\r\n            candidateRegistration.start <= now &&\r\n            now <= candidateRegistration.end,\r\n            \"Candidates Registration Prohibited\"\r\n        );\r\n        _;\r\n    }\r\n\r\n    modifier onlyOnVoterRegistrationTimeFrame() {\r\n        require(\r\n            voterRegistration.start <= now &&\r\n            now <= voterRegistration.end,\r\n            \"Voters Registration Prohibited\"\r\n        );\r\n        _;\r\n    }\r\n\r\n    modifier onlyOnVotingTimeFrame() {\r\n        require(\r\n            votingTimeFrame.start <= now &&\r\n            now <= votingTimeFrame.end,\r\n            \"Voting Prohibited\"\r\n        );\r\n        _;\r\n    }\r\n\r\n    modifier onlyValidVoter(string memory _voterName) {\r\n        (, bool valid) = getVoterByName(_voterName);\r\n\r\n        require(\r\n            valid == true,\r\n            \"You are not a Valid Voter\"\r\n        );\r\n        _;\r\n    }\r\n\r\n    // Kill Contract on Election End;\r\n\r\n\r\n    function registerCandidate(string memory _name, string memory _imgHash)\r\n        public\r\n        // onlyOnCandidateRegistrationTimeFrame\r\n    {\r\n        candidates.push(Candidate(_name, _imgHash, 0));\r\n    }\r\n\r\n    function registerVoter(string memory _name)\r\n        public\r\n        // onlyOnVoterRegistrationTimeFrame\r\n    {\r\n        voters.push(Voter(_name, true));\r\n    }\r\n\r\n    function voteCandidate(string memory _name, string memory _voterName)\r\n        public\r\n        onlyValidVoter(_voterName)\r\n        // onlyOnVotingTimeFrame\r\n    {\r\n        for (uint256 i = 0; i < candidates.length; i++) {\r\n            if (strEquals(candidates[i].name, _name)) {\r\n                candidates[i].votes += 1;\r\n            }\r\n        }\r\n    }\r\n\r\n    function getCandidateByIndex(uint256 _index)\r\n        public\r\n        view\r\n        returns (string memory, string memory, uint256)\r\n    {\r\n\r\n        return\r\n        (\r\n            candidates[_index].name,\r\n            candidates[_index].imgHash,\r\n            candidates[_index].votes\r\n        );\r\n\r\n\r\n    }\r\n\r\n    function getCandidateByName(string memory _name)\r\n        public\r\n        view\r\n        returns (string memory, string memory, uint256)\r\n    {\r\n        for (uint256 i = 0; i < candidates.length; i++) {\r\n            if (strEquals(candidates[i].name, _name)) {\r\n\r\n                return\r\n                (\r\n                    candidates[i].name,\r\n                    candidates[i].imgHash,\r\n                    candidates[i].votes\r\n                );\r\n\r\n            }\r\n        }\r\n    }\r\n\r\n    function getCandidateCount()\r\n        public\r\n        view\r\n        returns (uint256)\r\n    {\r\n        return candidates.length;\r\n    }\r\n\r\n\r\n    function getVotes(string memory _name)\r\n        public\r\n        view\r\n        returns (uint256)\r\n    {\r\n        (, , uint256 votes) = getCandidateByName(_name);\r\n        return votes;\r\n    }\r\n\r\n    function getVoterByIndex(uint256 _index)\r\n        public\r\n        view\r\n        returns (string memory, bool)\r\n    {\r\n\r\n        return\r\n        (\r\n            voters[_index].name,\r\n            voters[_index].valid\r\n        );\r\n\r\n    }\r\n\r\n    function getVoterByName(string memory _name)\r\n        public\r\n        view\r\n        returns (string memory, bool)\r\n    {\r\n        for (uint256 i = 0; i < voters.length; i++) {\r\n            if (strEquals(voters[i].name, _name)) {\r\n\r\n                return\r\n                (\r\n                    voters[i].name,\r\n                    voters[i].valid\r\n                );\r\n\r\n            }\r\n        }\r\n    }\r\n\r\n    function getVoterCount()\r\n        public\r\n        view\r\n        returns (uint256)\r\n    {\r\n        return voters.length;\r\n    }\r\n\r\n    function strHash(string memory str)\r\n        private\r\n        pure\r\n        returns (bytes32)\r\n    {\r\n        return keccak256(abi.encodePacked(str));\r\n    }\r\n\r\n    function strEquals(string memory a, string memory b)\r\n        private\r\n        pure\r\n        returns (bool)\r\n    {\r\n        return strHash(a) == strHash(b);\r\n    }\r\n\r\n}",
  "sourcePath": "D:/ProgrammingZone/dapp-voting-system/contracts/VotingSystem.sol",
  "compiler": {
    "name": "solc",
    "version": "0.5.4+commit.9549d8ff.Emscripten.clang"
  },
  "schemaVersion": "3.0.11",
  "updatedAt": "2019-06-19T15:18:39.235Z",
  "devdoc": {
    "methods": {}
  },
  "userdoc": {
    "methods": {}
  }
}