{
  "contractName": "VotingSystem",
  "abi": [
    {
      "inputs": [
        {
          "name": "daysTillRegistrationStart",
          "type": "uint8"
        },
        {
          "name": "daysTillRegistrationEnd",
          "type": "uint8"
        },
        {
          "name": "daysTillVotingStart",
          "type": "uint8"
        },
        {
          "name": "dayTillsVotingEnd",
          "type": "uint8"
        }
      ],
      "payable": false,
      "stateMutability": "nonpayable",
      "type": "constructor"
    },
    {
      "constant": false,
      "inputs": [
        {
          "name": "daysTillRegistrationStart",
          "type": "uint8"
        },
        {
          "name": "daysTillRegistrationEnd",
          "type": "uint8"
        },
        {
          "name": "daysTillVotingStart",
          "type": "uint8"
        },
        {
          "name": "dayTillsVotingEnd",
          "type": "uint8"
        }
      ],
      "name": "resetElection",
      "outputs": [],
      "payable": false,
      "stateMutability": "nonpayable",
      "type": "function"
    },
    {
      "constant": false,
      "inputs": [
        {
          "name": "_name",
          "type": "bytes32"
        },
        {
          "name": "_partyList",
          "type": "bytes32"
        },
        {
          "name": "_imgHash",
          "type": "string"
        },
        {
          "name": "_candidacy",
          "type": "string"
        }
      ],
      "name": "registerCandidate",
      "outputs": [],
      "payable": false,
      "stateMutability": "nonpayable",
      "type": "function"
    },
    {
      "constant": false,
      "inputs": [
        {
          "name": "_name",
          "type": "bytes32"
        }
      ],
      "name": "registerVoter",
      "outputs": [],
      "payable": false,
      "stateMutability": "nonpayable",
      "type": "function"
    },
    {
      "constant": false,
      "inputs": [
        {
          "name": "_candidateName",
          "type": "bytes32"
        },
        {
          "name": "_candidacy",
          "type": "string"
        },
        {
          "name": "_voterName",
          "type": "bytes32"
        }
      ],
      "name": "voteCandidate",
      "outputs": [],
      "payable": false,
      "stateMutability": "nonpayable",
      "type": "function"
    },
    {
      "constant": true,
      "inputs": [
        {
          "name": "_index",
          "type": "uint8"
        },
        {
          "name": "_candidacy",
          "type": "string"
        }
      ],
      "name": "getCandidateByIndex",
      "outputs": [
        {
          "name": "",
          "type": "bytes32"
        },
        {
          "name": "",
          "type": "bytes32"
        },
        {
          "name": "",
          "type": "string"
        },
        {
          "name": "",
          "type": "uint24"
        }
      ],
      "payable": false,
      "stateMutability": "view",
      "type": "function"
    },
    {
      "constant": true,
      "inputs": [
        {
          "name": "_name",
          "type": "bytes32"
        },
        {
          "name": "_candidacy",
          "type": "string"
        }
      ],
      "name": "getCandidateByName",
      "outputs": [
        {
          "name": "",
          "type": "bytes32"
        },
        {
          "name": "",
          "type": "bytes32"
        },
        {
          "name": "",
          "type": "string"
        },
        {
          "name": "",
          "type": "uint24"
        }
      ],
      "payable": false,
      "stateMutability": "view",
      "type": "function"
    },
    {
      "constant": true,
      "inputs": [],
      "name": "getPresCount",
      "outputs": [
        {
          "name": "",
          "type": "uint8"
        }
      ],
      "payable": false,
      "stateMutability": "view",
      "type": "function"
    },
    {
      "constant": true,
      "inputs": [],
      "name": "getVicePresCount",
      "outputs": [
        {
          "name": "",
          "type": "uint8"
        }
      ],
      "payable": false,
      "stateMutability": "view",
      "type": "function"
    },
    {
      "constant": true,
      "inputs": [],
      "name": "getSenCount",
      "outputs": [
        {
          "name": "",
          "type": "uint8"
        }
      ],
      "payable": false,
      "stateMutability": "view",
      "type": "function"
    },
    {
      "constant": true,
      "inputs": [
        {
          "name": "_name",
          "type": "bytes32"
        },
        {
          "name": "_candidacy",
          "type": "string"
        }
      ],
      "name": "getVotes",
      "outputs": [
        {
          "name": "",
          "type": "uint256"
        }
      ],
      "payable": false,
      "stateMutability": "view",
      "type": "function"
    },
    {
      "constant": true,
      "inputs": [
        {
          "name": "_index",
          "type": "uint24"
        }
      ],
      "name": "getVoterByIndex",
      "outputs": [
        {
          "name": "",
          "type": "bytes32"
        },
        {
          "name": "",
          "type": "bool"
        }
      ],
      "payable": false,
      "stateMutability": "view",
      "type": "function"
    },
    {
      "constant": true,
      "inputs": [
        {
          "name": "_name",
          "type": "bytes32"
        }
      ],
      "name": "getVoterByName",
      "outputs": [
        {
          "name": "",
          "type": "bytes32"
        },
        {
          "name": "",
          "type": "bool"
        }
      ],
      "payable": false,
      "stateMutability": "view",
      "type": "function"
    },
    {
      "constant": true,
      "inputs": [],
      "name": "getVoterCount",
      "outputs": [
        {
          "name": "",
          "type": "uint24"
        }
      ],
      "payable": false,
      "stateMutability": "view",
      "type": "function"
    },
    {
      "constant": false,
      "inputs": [
        {
          "name": "_voterName",
          "type": "bytes32"
        }
      ],
      "name": "invalidateVoter",
      "outputs": [],
      "payable": false,
      "stateMutability": "nonpayable",
      "type": "function"
    }
  ],
  "bytecode": "0x608060405234801561001057600080fd5b50604051608080611ba58339810180604052608081101561003057600080fd5b508051602080830151604080850151606090950151815180830183524262ffffff6201518060ff98891681028216830180855296891681028216830193880184905260009690965560019290925583518085019094529686168402811687018084529590911690920290911693909301920182905260025560035560088054600160a060020a03191633179055611ad9806100cc6000396000f3fe608060405234801561001057600080fd5b5060043610610107576000357c01000000000000000000000000000000000000000000000000000000009004806394da21f6116100a9578063cdd2453c11610083578063cdd2453c146105a5578063d6fb3c48146105ad578063fad65d80146105ca578063fb79cb021461068957610107565b806394da21f6146104475780639ca387db14610580578063aee8caf01461058857610107565b80631a03778d116100e55780631a03778d1461032457806369597822146103d157806369be7516146103ef578063793c5d211461042a57610107565b806307290b311461010c578063099d16661461025357806311174a2914610304575b600080fd5b6101bc6004803603604081101561012257600080fd5b60ff823516919081019060408101602082013564010000000081111561014757600080fd5b82018360208201111561015957600080fd5b8035906020019184600183028401116401000000008311171561017b57600080fd5b91908080601f0160208091040260200160405190810160405280939291908181526020018383808284376000920191909152509295506106c1945050505050565b60405180858152602001848152602001806020018362ffffff1662ffffff168152602001828103825284818151815260200191508051906020019080838360005b838110156102155781810151838201526020016101fd565b50505050905090810190601f1680156102425780820380516001836020036101000a031916815260200191505b509550505050505060405180910390f35b6103026004803603606081101561026957600080fd5b8135919081019060408101602082013564010000000081111561028b57600080fd5b82018360208201111561029d57600080fd5b803590602001918460018302840111640100000000831117156102bf57600080fd5b91908080601f0160208091040260200160405190810160405280939291908181526020018383808284376000920191909152509295505091359250610990915050565b005b61030c610acd565b6040805162ffffff9092168252519081900360200190f35b6101bc6004803603604081101561033a57600080fd5b8135919081019060408101602082013564010000000081111561035c57600080fd5b82018360208201111561036e57600080fd5b8035906020019184600183028401116401000000008311171561039057600080fd5b91908080601f016020809104026020016040519081016040528093929190818152602001838380828437600092019190915250929550610ad4945050505050565b6103d9610eea565b6040805160ff9092168252519081900360200190f35b6104116004803603602081101561040557600080fd5b503562ffffff16610ef0565b6040805192835290151560208301528051918290030190f35b6103026004803603602081101561044057600080fd5b5035610f4f565b6103026004803603608081101561045d57600080fd5b81359160208101359181019060608101604082013564010000000081111561048457600080fd5b82018360208201111561049657600080fd5b803590602001918460018302840111640100000000831117156104b857600080fd5b91908080601f016020809104026020016040519081016040528093929190818152602001838380828437600092019190915250929594936020810193503591505064010000000081111561050b57600080fd5b82018360208201111561051d57600080fd5b8035906020019184600183028401116401000000008311171561053f57600080fd5b91908080601f016020809104026020016040519081016040528093929190818152602001838380828437600092019190915250929550610fd4945050505050565b6103d96112f4565b6104116004803603602081101561059e57600080fd5b50356112fa565b6103d96113a5565b610302600480360360208110156105c357600080fd5b50356113ab565b610677600480360360408110156105e057600080fd5b8135919081019060408101602082013564010000000081111561060257600080fd5b82018360208201111561061457600080fd5b8035906020019184600183028401116401000000008311171561063657600080fd5b91908080601f01602080910402602001604051908101604052809392919081815260200183838082843760009201919091525092955061142f945050505050565b60408051918252519081900360200190f35b6103026004803603608081101561069f57600080fd5b5060ff813581169160208101358216916040820135811691606001351661144c565b600080606060006106f585604080519081016040528060098152602001600080516020611a6e83398151915281525061156a565b1561082b576004805460ff881690811061070b57fe5b90600052602060002090600402016000015460048760ff1681548110151561072f57fe5b90600052602060002090600402016001015460048860ff1681548110151561075357fe5b906000526020600020906004020160020160048960ff1681548110151561077657fe5b600091825260209182902060036004909202010154825460408051601f6002600019600186161561010002019094169390930492830185900485028101850190915281815262ffffff909216928491908301828280156108175780601f106107ec57610100808354040283529160200191610817565b820191906000526020600020905b8154815290600101906020018083116107fa57829003601f168201915b505050505091509350935093509350610987565b610858856040805190810160405280600e8152602001600080516020611a8e83398151915281525061156a565b156108d9576005805460ff881690811061086e57fe5b90600052602060002090600402016000015460058760ff1681548110151561089257fe5b90600052602060002090600402016001015460058860ff168154811015156108b657fe5b906000526020600020906004020160020160058960ff1681548110151561077657fe5b61090685604080519081016040528060078152602001600080516020611a4e83398151915281525061156a565b15610987576006805460ff881690811061091c57fe5b90600052602060002090600402016000015460068760ff1681548110151561094057fe5b90600052602060002090600402016001015460068860ff1681548110151561096457fe5b906000526020600020906004020160020160068960ff1681548110151561077657fe5b92959194509250565b80600061099c826112fa565b915050600181151514610a1057604080517f08c379a000000000000000000000000000000000000000000000000000000000815260206004820152601960248201527f596f7520617265206e6f7420612056616c696420566f74657200000000000000604482015290519081900360640190fd5b610a3d84604080519081016040528060098152602001600080516020611a6e83398151915281525061156a565b15610a5057610a4b85611651565b610ac6565b610a7d846040805190810160405280600e8152602001600080516020611a8e83398151915281525061156a565b15610a8b57610a4b856116d7565b610ab884604080519081016040528060078152602001600080516020611a4e83398151915281525061156a565b15610ac657610ac68561175d565b5050505050565b6007545b90565b60008060606000610b0885604080519081016040528060098152602001600080516020611a6e83398151915281525061156a565b15610c4457610c37866004805480602002602001604051908101604052809291908181526020016000905b82821015610c2e5783829060005260206000209060040201608060405190810160405290816000820154815260200160018201548152602001600282018054600181600116156101000203166002900480601f016020809104026020016040519081016040528092919081815260200182805460018160011615610100020316600290048015610c045780601f10610bd957610100808354040283529160200191610c04565b820191906000526020600020905b815481529060010190602001808311610be757829003601f168201915b50505091835250506003919091015462ffffff166020918201529082526001929092019101610b33565b505050506117e3565b9350935093509350610987565b610c71856040805190810160405280600e8152602001600080516020611a8e83398151915281525061156a565b15610d9757610c37866005805480602002602001604051908101604052809291908181526020016000905b82821015610c2e5783829060005260206000209060040201608060405190810160405290816000820154815260200160018201548152602001600282018054600181600116156101000203166002900480601f016020809104026020016040519081016040528092919081815260200182805460018160011615610100020316600290048015610d6d5780601f10610d4257610100808354040283529160200191610d6d565b820191906000526020600020905b815481529060010190602001808311610d5057829003601f168201915b50505091835250506003919091015462ffffff166020918201529082526001929092019101610c9c565b610dc485604080519081016040528060078152602001600080516020611a4e83398151915281525061156a565b1561098757610c37866006805480602002602001604051908101604052809291908181526020016000905b82821015610c2e5783829060005260206000209060040201608060405190810160405290816000820154815260200160018201548152602001600282018054600181600116156101000203166002900480601f016020809104026020016040519081016040528092919081815260200182805460018160011615610100020316600290048015610ec05780601f10610e9557610100808354040283529160200191610ec0565b820191906000526020600020905b815481529060010190602001808311610ea357829003601f168201915b50505091835250506003919091015462ffffff166020918201529082526001929092019101610def565b60045490565b60008060078362ffffff16815481101515610f0757fe5b90600052602060002090600202016000015460078462ffffff16815481101515610f2d57fe5b600091825260209091206001600290920201015490925060ff1690505b915091565b6040805180820190915290815260016020820181815260078054928301815560005291517fa66cc928b5edb82af9bd49922954155ab7b0942694bea4ce44661d9a8736c68860029092029182015590517fa66cc928b5edb82af9bd49922954155ab7b0942694bea4ce44661d9a8736c689909101805460ff1916911515919091179055565b61100181604080519081016040528060098152602001600080516020611a6e83398151915281525061156a565b156110e857604080516080810182528581526020808201868152928201858152600060608401819052600480546001810180835592829052855191027f8a35acfbc15ff81a39ae7d344fd709f28e8600b4aa8c65c6b64bfe7fe36bd19b810191825595517f8a35acfbc15ff81a39ae7d344fd709f28e8600b4aa8c65c6b64bfe7fe36bd19c87015591518051919592936110c0937f8a35acfbc15ff81a39ae7d344fd709f28e8600b4aa8c65c6b64bfe7fe36bd19d01929101906118a4565b50606091909101516003909101805462ffffff191662ffffff909216919091179055506112ee565b611115816040805190810160405280600e8152602001600080516020611a8e83398151915281525061156a565b156111d957604080516080810182528581526020808201868152928201858152600060608401819052600580546001810180835591909252845160049092027f036b6384b5eca791c62761152d0c79bb0604c104a5fb6f4eb0703f3154bb3db0810192835595517f036b6384b5eca791c62761152d0c79bb0604c104a5fb6f4eb0703f3154bb3db187015591518051929591936110c0937f036b6384b5eca791c62761152d0c79bb0604c104a5fb6f4eb0703f3154bb3db2909301929101906118a4565b61120681604080519081016040528060078152602001600080516020611a4e83398151915281525061156a565b156112ee57604080516080810182528581526020808201868152928201858152600060608401819052600680546001810180835591909252845160049092027ff652222313e28459528d920b65115c16c04f3efc82aaedc97be59f3f377c0d3f810192835595517ff652222313e28459528d920b65115c16c04f3efc82aaedc97be59f3f377c0d4087015591518051929591936112ca937ff652222313e28459528d920b65115c16c04f3efc82aaedc97be59f3f377c0d41909301929101906118a4565b50606091909101516003909101805462ffffff191662ffffff909216919091179055505b50505050565b60055490565b600080805b60075462ffffff8216101561139f578360078262ffffff1681548110151561132357fe5b9060005260206000209060020201600001541415611397576007805462ffffff831690811061134e57fe5b90600052602060002090600202016000015460078262ffffff1681548110151561137457fe5b600091825260209091206001600290920201015490935060ff169150610f4a9050565b6001016112ff565b50915091565b60065490565b60005b60075462ffffff8216101561142b578160078262ffffff168154811015156113d257fe5b906000526020600020906002020160000154141561142357600060078262ffffff1681548110151561140057fe5b60009182526020909120600290910201600101805460ff19169115159190911790555b6001016113ae565b5050565b60008061143c8484610ad4565b62ffffff16979650505050505050565b60085473ffffffffffffffffffffffffffffffffffffffff1633146114bc576040517f08c379a0000000000000000000000000000000000000000000000000000000008152600401808060200182810382526024815260200180611a2a6024913960400191505060405180910390fd5b6040805180820182524262ffffff6201518060ff808a16820283168481018087528a831684028516868101602098890181905260009283556001558851808a019099528a841685028616878101808b52948b1690950290951695860197909601879052600291909155600395909555909290919061153c90600490611922565b61154860056000611922565b61155460066000611922565b61156060076000611946565b5050505050505050565b6000816040516020018082805190602001908083835b6020831061159f5780518252601f199092019160209182019101611580565b6001836020036101000a03801982511681845116808217855250505050505090500191505060405160208183030381529060405280519060200120836040516020018082805190602001908083835b6020831061160d5780518252601f1990920191602091820191016115ee565b6001836020036101000a0380198251168184511680821785525050505050509050019150506040516020818303038152906040528051906020012014905092915050565b60005b60045460ff8216101561142b578160048260ff1681548110151561167457fe5b90600052602060002090600402016000015414156116cf57600160048260ff168154811015156116a057fe5b60009182526020909120600490910201600301805462ffffff19811662ffffff91821693909301169190911790555b600101611654565b60005b60055460ff8216101561142b578160058260ff168154811015156116fa57fe5b906000526020600020906004020160000154141561175557600160058260ff1681548110151561172657fe5b60009182526020909120600490910201600301805462ffffff19811662ffffff91821693909301169190911790555b6001016116da565b60005b60065460ff8216101561142b578160068260ff1681548110151561178057fe5b90600052602060002090600402016000015414156117db57600160068260ff168154811015156117ac57fe5b60009182526020909120600490910201600301805462ffffff19811662ffffff91821693909301169190911790555b600101611760565b600080606081805b855181101561189a5786868281518110151561180357fe5b6020908102909101015151141561189257858181518110151561182257fe5b6020908102909101015151865187908390811061183b57fe5b9060200190602002015160200151878381518110151561185757fe5b9060200190602002015160400151888481518110151561187357fe5b9060200190602002015160600151819150945094509450945050610987565b6001016117eb565b5092959194509250565b828054600181600116156101000203166002900490600052602060002090601f016020900481019282601f106118e557805160ff1916838001178555611912565b82800160010185558215611912579182015b828111156119125782518255916020019190600101906118f7565b5061191e929150611967565b5090565b50805460008255600402906000526020600020908101906119439190611981565b50565b508054600082556002029060005260206000209081019061194391906119bf565b610ad191905b8082111561191e576000815560010161196d565b610ad191905b8082111561191e576000808255600182018190556119a860028301826119e5565b5060038101805462ffffff19169055600401611987565b610ad191905b8082111561191e576000815560018101805460ff191690556002016119c5565b50805460018160011615610100020316600290046000825580601f10611a0b5750611943565b601f016020900490600052602060002090810190611943919061196756fe596f7520646f6e277420686176652061646d696e697374726174696f6e2072696768747353656e61746f7200000000000000000000000000000000000000000000000000507265736964656e7400000000000000000000000000000000000000000000005669636520507265736964656e74000000000000000000000000000000000000a165627a7a72305820494e20b08330f0e68d3774c3c2fc095893e3f42b73631e23b222f27e675bbff80029",
  "source": "pragma solidity 0.5.4;\r\n\r\ncontract VotingSystem {\r\n\r\n    struct Voter {\r\n        bytes32 name;\r\n        // add more information\r\n\r\n        bool validity;\r\n    }\r\n\r\n    struct Candidate {\r\n        bytes32 name;\r\n        bytes32 partyList;\r\n        // add more information\r\n\r\n        string imgHash;\r\n        // Improvement:\r\n        //\r\n        // imgHash {\r\n        //      bytes32 hash\r\n        //      uint8 hash_function\r\n        //      uint8 size\r\n        // }\r\n\r\n        uint24 votes;\r\n    }\r\n\r\n    struct TimeFrame {\r\n        uint256 start;\r\n        uint256 end;\r\n    }\r\n\r\n    TimeFrame registrationPhase;\r\n    TimeFrame votingPhase;\r\n\r\n    Candidate[] presCandidates;\r\n    Candidate[] vicePresCandidates;\r\n    Candidate[] senCandidates;\r\n\r\n    Voter[] voters;\r\n\r\n    address electionAdmin;\r\n\r\n    modifier onlyElectionAdmin() {\r\n        require(electionAdmin == msg.sender, \"You don't have administration rights\");\r\n        _;\r\n    }\r\n\r\n    modifier onlyUnregisteredVoter(bytes32 _voterName) {\r\n        for (uint24 i = 0; i < voters.length; i++) {\r\n            require(voters[i].name != _voterName, 'You are already registered as a voter');\r\n        }\r\n        _;\r\n    }\r\n\r\n    modifier onlyUnregisteredCandidate(bytes32 _voterName, string memory _candidacy) {\r\n        if (strEquals(_candidacy, 'President')) {\r\n            for (uint8 i = 0; i < presCandidates.length; i++) {\r\n                require(presCandidates[i].name != _voterName, 'You are already registered as a candidate');\r\n            }\r\n        }\r\n        else if (strEquals(_candidacy, 'Vice President')) {\r\n            for (uint8 i = 0; i < vicePresCandidates.length; i++) {\r\n                require(vicePresCandidates[i].name != _voterName, 'You are already registered as a candidate');\r\n            }\r\n        }\r\n        else if (strEquals(_candidacy, 'Senator')) {\r\n            for (uint8 i = 0; i < senCandidates.length; i++) {\r\n                require(senCandidates[i].name != _voterName, 'You are already registered as a candidate');\r\n            }\r\n        }\r\n        _;\r\n    }\r\n\r\n    modifier onlyOnRegistrationTimeFrame() {\r\n        require(\r\n            registrationPhase.start <= now &&\r\n            now <= registrationPhase.end,\r\n            \"Registration Prohibited\"\r\n        );\r\n        _;\r\n    }\r\n\r\n    modifier onlyOnVotingTimeFrame() {\r\n        require(\r\n            votingPhase.start <= now &&\r\n            now <= votingPhase.end,\r\n            \"Voting Prohibited\"\r\n        );\r\n        _;\r\n    }\r\n\r\n    modifier onlyValidVoter(bytes32 _voterName) {\r\n        (, bool valid) = getVoterByName(_voterName);\r\n\r\n        require(\r\n            valid == true,\r\n            \"You are not a Valid Voter\"\r\n        );\r\n        _;\r\n    }\r\n\r\n    constructor(uint8 daysTillRegistrationStart, uint8 daysTillRegistrationEnd,\r\n                uint8 daysTillVotingStart, uint8 dayTillsVotingEnd) public {\r\n\r\n        uint256 registrationStart = daysTillRegistrationStart * 1 days;\r\n        uint256 registrationEnd = daysTillRegistrationEnd * 1 days;\r\n\r\n        uint256 votingStart = daysTillVotingStart * 1 days;\r\n        uint256 votingEnd = dayTillsVotingEnd * 1 days;\r\n\r\n        registrationPhase = TimeFrame(now + registrationStart, now + registrationEnd);\r\n        votingPhase = TimeFrame(now + votingStart, now + votingEnd);\r\n        electionAdmin = msg.sender;\r\n    }\r\n\r\n    function resetElection(uint8 daysTillRegistrationStart, uint8 daysTillRegistrationEnd,\r\n                           uint8 daysTillVotingStart, uint8 dayTillsVotingEnd) public onlyElectionAdmin {\r\n\r\n        uint256 registrationStart = daysTillRegistrationStart * 1 days;\r\n        uint256 registrationEnd = daysTillRegistrationEnd * 1 days;\r\n\r\n        uint256 votingStart = daysTillVotingStart * 1 days;\r\n        uint256 votingEnd = dayTillsVotingEnd * 1 days;\r\n\r\n        registrationPhase = TimeFrame(now + registrationStart, now + registrationEnd);\r\n        votingPhase = TimeFrame(now + votingStart, now + votingEnd);\r\n\r\n        delete presCandidates;\r\n        delete vicePresCandidates;\r\n        delete senCandidates;\r\n        delete voters;\r\n\r\n    }\r\n\r\n    function registerCandidate(bytes32 _name, bytes32 _partyList, string memory _imgHash, string memory _candidacy)\r\n        public\r\n        // onlyOnCandidateRegistrationTimeFrame\r\n    {\r\n        if (strEquals(_candidacy, 'President')) {\r\n            presCandidates.push(Candidate(_name, _partyList, _imgHash, 0));\r\n        }\r\n        else if (strEquals(_candidacy, 'Vice President')) {\r\n            vicePresCandidates.push(Candidate(_name, _partyList, _imgHash, 0));\r\n        }\r\n        else if (strEquals(_candidacy, 'Senator')) {\r\n            senCandidates.push(Candidate(_name, _partyList, _imgHash, 0));\r\n        }\r\n    }\r\n\r\n    function registerVoter(bytes32 _name)\r\n        public\r\n        // onlyOnRegistrationTimeFrame\r\n    {\r\n        voters.push(Voter(_name, true));\r\n    }\r\n\r\n    function votePresident(bytes32 _candidateName) private  {\r\n        for (uint8 i = 0; i < presCandidates.length; i++) {\r\n            if (presCandidates[i].name == _candidateName) {\r\n                presCandidates[i].votes += 1;\r\n            }\r\n        }\r\n    }\r\n\r\n    function voteVicePresident(bytes32 _candidateName) private {\r\n        for (uint8 i = 0; i < vicePresCandidates.length; i++) {\r\n            if (vicePresCandidates[i].name == _candidateName) {\r\n                vicePresCandidates[i].votes += 1;\r\n            }\r\n        }\r\n    }\r\n\r\n    function voteSenator(bytes32 _candidateName) private {\r\n        for (uint8 i = 0; i < senCandidates.length; i++) {\r\n            if (senCandidates[i].name == _candidateName) {\r\n                senCandidates[i].votes += 1;\r\n            }\r\n        }\r\n    }\r\n\r\n    function voteCandidate(bytes32 _candidateName, string memory _candidacy, bytes32 _voterName)\r\n        public\r\n        onlyValidVoter(_voterName)\r\n        // onlyOnVotingTimeFrame\r\n    {\r\n        if (strEquals(_candidacy, 'President'))\r\n        {\r\n            votePresident(_candidateName);\r\n        }\r\n        else if (strEquals(_candidacy, 'Vice President')) {\r\n            voteVicePresident(_candidateName);\r\n        }\r\n        else if (strEquals(_candidacy, 'Senator')) {\r\n            voteSenator(_candidateName);\r\n        }\r\n    }\r\n\r\n    function getCandidateByIndex(uint8 _index, string memory _candidacy)\r\n        public\r\n        view\r\n        returns (bytes32, bytes32, string memory, uint24)\r\n    {\r\n        if (strEquals(_candidacy, 'President'))\r\n        {\r\n            return\r\n            (\r\n                presCandidates[_index].name,\r\n                presCandidates[_index].partyList,\r\n                presCandidates[_index].imgHash,\r\n                presCandidates[_index].votes\r\n            );\r\n        }\r\n        else if (strEquals(_candidacy, 'Vice President'))\r\n        {\r\n            return\r\n            (\r\n                vicePresCandidates[_index].name,\r\n                vicePresCandidates[_index].partyList,\r\n                vicePresCandidates[_index].imgHash,\r\n                vicePresCandidates[_index].votes\r\n            );\r\n        }\r\n        else if (strEquals(_candidacy, 'Senator'))\r\n        {\r\n            return\r\n            (\r\n                senCandidates[_index].name,\r\n                senCandidates[_index].partyList,\r\n                senCandidates[_index].imgHash,\r\n                senCandidates[_index].votes\r\n            );\r\n        }\r\n    }\r\n\r\n    function getCandidateByName(bytes32 _name, string memory _candidacy)\r\n        public\r\n        view\r\n        returns (bytes32, bytes32, string memory, uint24)\r\n    {\r\n        if (strEquals(_candidacy, 'President')) {\r\n            return getCandidateFromList(_name, presCandidates);\r\n        }\r\n        else if (strEquals(_candidacy, 'Vice President')) {\r\n            return getCandidateFromList(_name, vicePresCandidates);\r\n        }\r\n        else if (strEquals(_candidacy, 'Senator'))\r\n        {\r\n            return getCandidateFromList(_name, senCandidates);\r\n        }\r\n    }\r\n\r\n    function getPresCount() public view returns (uint8) {\r\n        return uint8(presCandidates.length);\r\n    }\r\n\r\n    function getVicePresCount() public view returns (uint8)\r\n    {\r\n        return uint8(vicePresCandidates.length);\r\n    }\r\n\r\n    function getSenCount() public view returns (uint8) {\r\n        return uint8(senCandidates.length);\r\n    }\r\n\r\n    function getVotes(bytes32 _name, string memory _candidacy)\r\n        public\r\n        view\r\n        returns (uint256)\r\n    {\r\n        (, , , uint24 votes) = getCandidateByName(_name, _candidacy);\r\n        return votes;\r\n    }\r\n\r\n    function getVoterByIndex(uint24 _index)\r\n        public\r\n        view\r\n        returns (bytes32, bool)\r\n    {\r\n\r\n        return\r\n        (\r\n            voters[_index].name,\r\n            voters[_index].validity\r\n        );\r\n\r\n    }\r\n\r\n    function getVoterByName(bytes32 _name)\r\n        public\r\n        view\r\n        returns (bytes32, bool)\r\n    {\r\n        for (uint24 i = 0; i < voters.length; i++) {\r\n            if (voters[i].name == _name) {\r\n\r\n                return\r\n                (\r\n                    voters[i].name,\r\n                    voters[i].validity\r\n                );\r\n\r\n            }\r\n        }\r\n    }\r\n\r\n    function getVoterCount()\r\n        public\r\n        view\r\n        returns (uint24)\r\n    {\r\n        return uint24(voters.length);\r\n    }\r\n\r\n    function invalidateVoter(bytes32 _voterName) public {\r\n        for (uint24 i = 0; i < voters.length; i++) {\r\n            if (voters[i].name == _voterName) {\r\n                voters[i].validity = false;\r\n            }\r\n        }\r\n    }\r\n\r\n    function getCandidateFromList(bytes32 _name, Candidate[] memory _candidateList)\r\n        private\r\n        pure\r\n        returns (bytes32, bytes32, string memory, uint24)\r\n    {\r\n        for (uint256 i = 0; i < _candidateList.length; i++) {\r\n            if (_candidateList[i].name == _name) {\r\n                return\r\n                (\r\n                    _candidateList[i].name,\r\n                    _candidateList[i].partyList,\r\n                    _candidateList[i].imgHash,\r\n                    _candidateList[i].votes\r\n                );\r\n            }\r\n        }\r\n    }\r\n\r\n    function strEquals(string memory a, string memory b) private pure returns (bool) {\r\n        return keccak256(abi.encodePacked(a)) == keccak256(abi.encodePacked(b));\r\n    }\r\n}",
  "sourcePath": "D:/ProgrammingZone/dapp-voting-system/contracts/VotingSystem.sol",
  "compiler": {
    "name": "solc",
    "version": "0.5.4+commit.9549d8ff.Emscripten.clang"
  },
  "schemaVersion": "3.0.11",
  "updatedAt": "2019-06-24T08:48:18.433Z",
  "devdoc": {
    "methods": {}
  },
  "userdoc": {
    "methods": {}
  }
}