{
  "contractName": "VotingSystem",
  "abi": [
    {
      "inputs": [
        {
          "name": "daysTillRegistrationStart",
          "type": "uint8"
        },
        {
          "name": "daysTillRegistrationEnd",
          "type": "uint8"
        },
        {
          "name": "daysTillVotingStart",
          "type": "uint8"
        },
        {
          "name": "dayTillsVotingEnd",
          "type": "uint8"
        }
      ],
      "payable": false,
      "stateMutability": "nonpayable",
      "type": "constructor"
    },
    {
      "constant": false,
      "inputs": [
        {
          "name": "_name",
          "type": "bytes32"
        },
        {
          "name": "_partyList",
          "type": "bytes32"
        },
        {
          "name": "_imgHash",
          "type": "string"
        },
        {
          "name": "_candidacy",
          "type": "string"
        }
      ],
      "name": "registerCandidate",
      "outputs": [],
      "payable": false,
      "stateMutability": "nonpayable",
      "type": "function"
    },
    {
      "constant": false,
      "inputs": [
        {
          "name": "_name",
          "type": "bytes32"
        }
      ],
      "name": "registerVoter",
      "outputs": [],
      "payable": false,
      "stateMutability": "nonpayable",
      "type": "function"
    },
    {
      "constant": false,
      "inputs": [
        {
          "name": "_candidateName",
          "type": "bytes32"
        },
        {
          "name": "_candidacy",
          "type": "string"
        },
        {
          "name": "_voterName",
          "type": "bytes32"
        }
      ],
      "name": "voteCandidate",
      "outputs": [],
      "payable": false,
      "stateMutability": "nonpayable",
      "type": "function"
    },
    {
      "constant": true,
      "inputs": [
        {
          "name": "_index",
          "type": "uint8"
        },
        {
          "name": "_candidacy",
          "type": "string"
        }
      ],
      "name": "getCandidateByIndex",
      "outputs": [
        {
          "name": "",
          "type": "bytes32"
        },
        {
          "name": "",
          "type": "bytes32"
        },
        {
          "name": "",
          "type": "string"
        },
        {
          "name": "",
          "type": "uint24"
        }
      ],
      "payable": false,
      "stateMutability": "view",
      "type": "function"
    },
    {
      "constant": true,
      "inputs": [
        {
          "name": "_name",
          "type": "bytes32"
        },
        {
          "name": "_candidacy",
          "type": "string"
        }
      ],
      "name": "getCandidateByName",
      "outputs": [
        {
          "name": "",
          "type": "bytes32"
        },
        {
          "name": "",
          "type": "bytes32"
        },
        {
          "name": "",
          "type": "string"
        },
        {
          "name": "",
          "type": "uint24"
        }
      ],
      "payable": false,
      "stateMutability": "view",
      "type": "function"
    },
    {
      "constant": true,
      "inputs": [],
      "name": "getPresCount",
      "outputs": [
        {
          "name": "",
          "type": "uint8"
        }
      ],
      "payable": false,
      "stateMutability": "view",
      "type": "function"
    },
    {
      "constant": true,
      "inputs": [],
      "name": "getVicePresCount",
      "outputs": [
        {
          "name": "",
          "type": "uint8"
        }
      ],
      "payable": false,
      "stateMutability": "view",
      "type": "function"
    },
    {
      "constant": true,
      "inputs": [],
      "name": "getSenCount",
      "outputs": [
        {
          "name": "",
          "type": "uint8"
        }
      ],
      "payable": false,
      "stateMutability": "view",
      "type": "function"
    },
    {
      "constant": true,
      "inputs": [
        {
          "name": "_name",
          "type": "bytes32"
        },
        {
          "name": "_candidacy",
          "type": "string"
        }
      ],
      "name": "getVotes",
      "outputs": [
        {
          "name": "",
          "type": "uint256"
        }
      ],
      "payable": false,
      "stateMutability": "view",
      "type": "function"
    },
    {
      "constant": true,
      "inputs": [
        {
          "name": "_index",
          "type": "uint24"
        }
      ],
      "name": "getVoterByIndex",
      "outputs": [
        {
          "name": "",
          "type": "bytes32"
        },
        {
          "name": "",
          "type": "bool"
        }
      ],
      "payable": false,
      "stateMutability": "view",
      "type": "function"
    },
    {
      "constant": true,
      "inputs": [
        {
          "name": "_name",
          "type": "bytes32"
        }
      ],
      "name": "getVoterByName",
      "outputs": [
        {
          "name": "",
          "type": "bytes32"
        },
        {
          "name": "",
          "type": "bool"
        }
      ],
      "payable": false,
      "stateMutability": "view",
      "type": "function"
    },
    {
      "constant": true,
      "inputs": [],
      "name": "getVoterCount",
      "outputs": [
        {
          "name": "",
          "type": "uint24"
        }
      ],
      "payable": false,
      "stateMutability": "view",
      "type": "function"
    },
    {
      "constant": false,
      "inputs": [
        {
          "name": "_voterName",
          "type": "bytes32"
        }
      ],
      "name": "invalidateVoter",
      "outputs": [],
      "payable": false,
      "stateMutability": "nonpayable",
      "type": "function"
    }
  ],
  "bytecode": "0x608060405234801561001057600080fd5b506040516080806119278339810180604052608081101561003057600080fd5b508051602080830151604080850151606090950151815180830183524262ffffff6201518060ff98891681028216830180855296891681028216830193880184905260009690965560019290925583518085019094529686168402811687018084529590911690920290911693909301920182905260025560035560088054600160a060020a0319163317905561185b806100cc6000396000f3fe608060405234801561001057600080fd5b50600436106100ec576000357c010000000000000000000000000000000000000000000000000000000090048063793c5d21116100a9578063aee8caf011610083578063aee8caf01461056d578063cdd2453c1461058a578063d6fb3c4814610592578063fad65d80146105af576100ec565b8063793c5d211461040f57806394da21f61461042c5780639ca387db14610565576100ec565b806307290b31146100f1578063099d16661461023857806311174a29146102e95780631a03778d1461030957806369597822146103b657806369be7516146103d4575b600080fd5b6101a16004803603604081101561010757600080fd5b60ff823516919081019060408101602082013564010000000081111561012c57600080fd5b82018360208201111561013e57600080fd5b8035906020019184600183028401116401000000008311171561016057600080fd5b91908080601f01602080910402602001604051908101604052809392919081815260200183838082843760009201919091525092955061066e945050505050565b60405180858152602001848152602001806020018362ffffff1662ffffff168152602001828103825284818151815260200191508051906020019080838360005b838110156101fa5781810151838201526020016101e2565b50505050905090810190601f1680156102275780820380516001836020036101000a031916815260200191505b509550505050505060405180910390f35b6102e76004803603606081101561024e57600080fd5b8135919081019060408101602082013564010000000081111561027057600080fd5b82018360208201111561028257600080fd5b803590602001918460018302840111640100000000831117156102a457600080fd5b91908080601f016020809104026020016040519081016040528093929190818152602001838380828437600092019190915250929550509135925061093d915050565b005b6102f1610a7a565b6040805162ffffff9092168252519081900360200190f35b6101a16004803603604081101561031f57600080fd5b8135919081019060408101602082013564010000000081111561034157600080fd5b82018360208201111561035357600080fd5b8035906020019184600183028401116401000000008311171561037557600080fd5b91908080601f016020809104026020016040519081016040528093929190818152602001838380828437600092019190915250929550610a81945050505050565b6103be610ea9565b6040805160ff9092168252519081900360200190f35b6103f6600480360360208110156103ea57600080fd5b503562ffffff16610eaf565b6040805192835290151560208301528051918290030190f35b6102e76004803603602081101561042557600080fd5b5035610f0e565b6102e76004803603608081101561044257600080fd5b81359160208101359181019060608101604082013564010000000081111561046957600080fd5b82018360208201111561047b57600080fd5b8035906020019184600183028401116401000000008311171561049d57600080fd5b91908080601f01602080910402602001604051908101604052809392919081815260200183838082843760009201919091525092959493602081019350359150506401000000008111156104f057600080fd5b82018360208201111561050257600080fd5b8035906020019184600183028401116401000000008311171561052457600080fd5b91908080601f016020809104026020016040519081016040528093929190818152602001838380828437600092019190915250929550610f93945050505050565b6103be6112c5565b6103f66004803603602081101561058357600080fd5b50356112cb565b6103be611376565b6102e7600480360360208110156105a857600080fd5b503561137c565b61065c600480360360408110156105c557600080fd5b813591908101906040810160208201356401000000008111156105e757600080fd5b8201836020820111156105f957600080fd5b8035906020019184600183028401116401000000008311171561061b57600080fd5b91908080601f016020809104026020016040519081016040528093929190818152602001838380828437600092019190915250929550611400945050505050565b60408051918252519081900360200190f35b600080606060006106a2856040805190810160405280600981526020016000805160206117f083398151915281525061141d565b156107d8576004805460ff88169081106106b857fe5b90600052602060002090600402016000015460048760ff168154811015156106dc57fe5b90600052602060002090600402016001015460048860ff1681548110151561070057fe5b906000526020600020906004020160020160048960ff1681548110151561072357fe5b600091825260209182902060036004909202010154825460408051601f6002600019600186161561010002019094169390930492830185900485028101850190915281815262ffffff909216928491908301828280156107c45780601f10610799576101008083540402835291602001916107c4565b820191906000526020600020905b8154815290600101906020018083116107a757829003601f168201915b505050505091509350935093509350610934565b610805856040805190810160405280600e815260200160008051602061181083398151915281525061141d565b15610886576005805460ff881690811061081b57fe5b90600052602060002090600402016000015460058760ff1681548110151561083f57fe5b90600052602060002090600402016001015460058860ff1681548110151561086357fe5b906000526020600020906004020160020160058960ff1681548110151561072357fe5b6108b3856040805190810160405280600e815260200160008051602061181083398151915281525061141d565b15610934576006805460ff88169081106108c957fe5b90600052602060002090600402016000015460068760ff168154811015156108ed57fe5b90600052602060002090600402016001015460068860ff1681548110151561091157fe5b906000526020600020906004020160020160068960ff1681548110151561072357fe5b92959194509250565b806000610949826112cb565b9150506001811515146109bd57604080517f08c379a000000000000000000000000000000000000000000000000000000000815260206004820152601960248201527f596f7520617265206e6f7420612056616c696420566f74657200000000000000604482015290519081900360640190fd5b6109ea846040805190810160405280600981526020016000805160206117f083398151915281525061141d565b156109fd576109f885611504565b610a73565b610a2a846040805190810160405280600e815260200160008051602061181083398151915281525061141d565b15610a38576109f88561158a565b610a65846040805190810160405280600e815260200160008051602061181083398151915281525061141d565b15610a7357610a7385611610565b5050505050565b6007545b90565b60008060606000610ab5856040805190810160405280600981526020016000805160206117f083398151915281525061141d565b15610bf157610be4866004805480602002602001604051908101604052809291908181526020016000905b82821015610bdb5783829060005260206000209060040201608060405190810160405290816000820154815260200160018201548152602001600282018054600181600116156101000203166002900480601f016020809104026020016040519081016040528092919081815260200182805460018160011615610100020316600290048015610bb15780601f10610b8657610100808354040283529160200191610bb1565b820191906000526020600020905b815481529060010190602001808311610b9457829003601f168201915b50505091835250506003919091015462ffffff166020918201529082526001929092019101610ae0565b50505050611696565b9350935093509350610934565b610c1e856040805190810160405280600e815260200160008051602061181083398151915281525061141d565b15610d4457610be4866005805480602002602001604051908101604052809291908181526020016000905b82821015610bdb5783829060005260206000209060040201608060405190810160405290816000820154815260200160018201548152602001600282018054600181600116156101000203166002900480601f016020809104026020016040519081016040528092919081815260200182805460018160011615610100020316600290048015610d1a5780601f10610cef57610100808354040283529160200191610d1a565b820191906000526020600020905b815481529060010190602001808311610cfd57829003601f168201915b50505091835250506003919091015462ffffff166020918201529082526001929092019101610c49565b610d83856040805190810160405280600781526020017f53656e61746f720000000000000000000000000000000000000000000000000081525061141d565b1561093457610be4866006805480602002602001604051908101604052809291908181526020016000905b82821015610bdb5783829060005260206000209060040201608060405190810160405290816000820154815260200160018201548152602001600282018054600181600116156101000203166002900480601f016020809104026020016040519081016040528092919081815260200182805460018160011615610100020316600290048015610e7f5780601f10610e5457610100808354040283529160200191610e7f565b820191906000526020600020905b815481529060010190602001808311610e6257829003601f168201915b50505091835250506003919091015462ffffff166020918201529082526001929092019101610dae565b60045490565b60008060078362ffffff16815481101515610ec657fe5b90600052602060002090600202016000015460078462ffffff16815481101515610eec57fe5b600091825260209091206001600290920201015490925060ff1690505b915091565b6040805180820190915290815260016020820181815260078054928301815560005291517fa66cc928b5edb82af9bd49922954155ab7b0942694bea4ce44661d9a8736c68860029092029182015590517fa66cc928b5edb82af9bd49922954155ab7b0942694bea4ce44661d9a8736c689909101805460ff1916911515919091179055565b610fc0816040805190810160405280600981526020016000805160206117f083398151915281525061141d565b156110a757604080516080810182528581526020808201868152928201858152600060608401819052600480546001810180835592829052855191027f8a35acfbc15ff81a39ae7d344fd709f28e8600b4aa8c65c6b64bfe7fe36bd19b810191825595517f8a35acfbc15ff81a39ae7d344fd709f28e8600b4aa8c65c6b64bfe7fe36bd19c870155915180519195929361107f937f8a35acfbc15ff81a39ae7d344fd709f28e8600b4aa8c65c6b64bfe7fe36bd19d0192910190611757565b50606091909101516003909101805462ffffff191662ffffff909216919091179055506112bf565b6110d4816040805190810160405280600e815260200160008051602061181083398151915281525061141d565b1561119857604080516080810182528581526020808201868152928201858152600060608401819052600580546001810180835591909252845160049092027f036b6384b5eca791c62761152d0c79bb0604c104a5fb6f4eb0703f3154bb3db0810192835595517f036b6384b5eca791c62761152d0c79bb0604c104a5fb6f4eb0703f3154bb3db1870155915180519295919361107f937f036b6384b5eca791c62761152d0c79bb0604c104a5fb6f4eb0703f3154bb3db290930192910190611757565b6111d7816040805190810160405280600781526020017f53656e61746f720000000000000000000000000000000000000000000000000081525061141d565b156112bf57604080516080810182528581526020808201868152928201858152600060608401819052600680546001810180835591909252845160049092027ff652222313e28459528d920b65115c16c04f3efc82aaedc97be59f3f377c0d3f810192835595517ff652222313e28459528d920b65115c16c04f3efc82aaedc97be59f3f377c0d40870155915180519295919361129b937ff652222313e28459528d920b65115c16c04f3efc82aaedc97be59f3f377c0d4190930192910190611757565b50606091909101516003909101805462ffffff191662ffffff909216919091179055505b50505050565b60055490565b600080805b60075462ffffff82161015611370578360078262ffffff168154811015156112f457fe5b9060005260206000209060020201600001541415611368576007805462ffffff831690811061131f57fe5b90600052602060002090600202016000015460078262ffffff1681548110151561134557fe5b600091825260209091206001600290920201015490935060ff169150610f099050565b6001016112d0565b50915091565b60065490565b60005b60075462ffffff821610156113fc578160078262ffffff168154811015156113a357fe5b90600052602060002090600202016000015414156113f457600060078262ffffff168154811015156113d157fe5b60009182526020909120600290910201600101805460ff19169115159190911790555b60010161137f565b5050565b60008061140d8484610a81565b62ffffff16979650505050505050565b6000816040516020018082805190602001908083835b602083106114525780518252601f199092019160209182019101611433565b6001836020036101000a03801982511681845116808217855250505050505090500191505060405160208183030381529060405280519060200120836040516020018082805190602001908083835b602083106114c05780518252601f1990920191602091820191016114a1565b6001836020036101000a0380198251168184511680821785525050505050509050019150506040516020818303038152906040528051906020012014905092915050565b60005b60045460ff821610156113fc578160048260ff1681548110151561152757fe5b906000526020600020906004020160000154141561158257600160048260ff1681548110151561155357fe5b60009182526020909120600490910201600301805462ffffff19811662ffffff91821693909301169190911790555b600101611507565b60005b60055460ff821610156113fc578160058260ff168154811015156115ad57fe5b906000526020600020906004020160000154141561160857600160058260ff168154811015156115d957fe5b60009182526020909120600490910201600301805462ffffff19811662ffffff91821693909301169190911790555b60010161158d565b60005b60065460ff821610156113fc578160068260ff1681548110151561163357fe5b906000526020600020906004020160000154141561168e57600160068260ff1681548110151561165f57fe5b60009182526020909120600490910201600301805462ffffff19811662ffffff91821693909301169190911790555b600101611613565b600080606081805b855181101561174d578686828151811015156116b657fe5b602090810290910101515114156117455785818151811015156116d557fe5b602090810290910101515186518790839081106116ee57fe5b9060200190602002015160200151878381518110151561170a57fe5b9060200190602002015160400151888481518110151561172657fe5b9060200190602002015160600151819150945094509450945050610934565b60010161169e565b5092959194509250565b828054600181600116156101000203166002900490600052602060002090601f016020900481019282601f1061179857805160ff19168380011785556117c5565b828001600101855582156117c5579182015b828111156117c55782518255916020019190600101906117aa565b506117d19291506117d5565b5090565b610a7e91905b808211156117d157600081556001016117db56fe507265736964656e7400000000000000000000000000000000000000000000005669636520507265736964656e74000000000000000000000000000000000000a165627a7a72305820108b21b999e9a22c41f102e0574338f7e0197d21f3927c7ed14399948da431d80029",
  "source": "pragma solidity 0.5.4;\r\n\r\ncontract VotingSystem {\r\n\r\n    struct Voter {\r\n        bytes32 name;\r\n        // add more information\r\n\r\n        bool validity;\r\n    }\r\n\r\n    struct Candidate {\r\n        bytes32 name;\r\n        bytes32 partyList;\r\n        // add more information\r\n\r\n        string imgHash;\r\n        // Improvement:\r\n        //\r\n        // imgHash {\r\n        //      bytes32 hash\r\n        //      uint8 hash_function\r\n        //      uint8 size\r\n        // }\r\n\r\n        uint24 votes;\r\n    }\r\n\r\n    struct TimeFrame {\r\n        uint256 start;\r\n        uint256 end;\r\n    }\r\n\r\n    TimeFrame registrationPhase;\r\n    TimeFrame votingPhase;\r\n\r\n    Candidate[] presCandidates;\r\n    Candidate[] vicePresCandidates;\r\n    Candidate[] senCandidates;\r\n\r\n    Voter[] voters;\r\n\r\n    address electionAdmin;\r\n\r\n    modifier onlyElectionAdmin() {\r\n        require(electionAdmin == msg.sender, \"You don't have administration rights\");\r\n        _;\r\n    }\r\n\r\n    modifier onlyUnregisteredVoter(bytes32 _voterName) {\r\n        for (uint24 i = 0; i < voters.length; i++) {\r\n            require(voters[i].name != _voterName, 'You are already registered as a voter');\r\n        }\r\n        _;\r\n    }\r\n\r\n    modifier onlyUnregisteredCandidate(bytes32 _voterName, string memory _candidacy) {\r\n        if (strEquals(_candidacy, 'President')) {\r\n            for (uint8 i = 0; i < presCandidates.length; i++) {\r\n                require(presCandidates[i].name != _voterName, 'You are already registered as a candidate');\r\n            }\r\n        }\r\n        else if (strEquals(_candidacy, 'Vice President')) {\r\n            for (uint8 i = 0; i < vicePresCandidates.length; i++) {\r\n                require(vicePresCandidates[i].name != _voterName, 'You are already registered as a candidate');\r\n            }\r\n        }\r\n        else if (strEquals(_candidacy, 'Senator')) {\r\n            for (uint8 i = 0; i < senCandidates.length; i++) {\r\n                require(senCandidates[i].name != _voterName, 'You are already registered as a candidate');\r\n            }\r\n        }\r\n        _;\r\n    }\r\n\r\n    modifier onlyOnRegistrationTimeFrame() {\r\n        require(\r\n            registrationPhase.start <= now &&\r\n            now <= registrationPhase.end,\r\n            \"Registration Prohibited\"\r\n        );\r\n        _;\r\n    }\r\n\r\n    modifier onlyOnVotingTimeFrame() {\r\n        require(\r\n            votingPhase.start <= now &&\r\n            now <= votingPhase.end,\r\n            \"Voting Prohibited\"\r\n        );\r\n        _;\r\n    }\r\n\r\n    modifier onlyValidVoter(bytes32 _voterName) {\r\n        (, bool valid) = getVoterByName(_voterName);\r\n\r\n        require(\r\n            valid == true,\r\n            \"You are not a Valid Voter\"\r\n        );\r\n        _;\r\n    }\r\n\r\n    constructor(uint8 daysTillRegistrationStart, uint8 daysTillRegistrationEnd,\r\n                uint8 daysTillVotingStart, uint8 dayTillsVotingEnd) public {\r\n\r\n        uint256 registrationStart = daysTillRegistrationStart * 1 days;\r\n        uint256 registrationEnd = daysTillRegistrationEnd * 1 days;\r\n\r\n        uint256 votingStart = daysTillVotingStart * 1 days;\r\n        uint256 votingEnd = dayTillsVotingEnd * 1 days;\r\n\r\n        registrationPhase = TimeFrame(now + registrationStart, now + registrationEnd);\r\n        votingPhase = TimeFrame(now + votingStart, now + votingEnd);\r\n        electionAdmin = msg.sender;\r\n    }\r\n\r\n    function registerCandidate(bytes32 _name, bytes32 _partyList, string memory _imgHash, string memory _candidacy)\r\n        public\r\n        // onlyOnCandidateRegistrationTimeFrame\r\n    {\r\n        if (strEquals(_candidacy, 'President')) {\r\n            presCandidates.push(Candidate(_name, _partyList, _imgHash, 0));\r\n        }\r\n        else if (strEquals(_candidacy, 'Vice President')) {\r\n            vicePresCandidates.push(Candidate(_name, _partyList, _imgHash, 0));\r\n        }\r\n        else if (strEquals(_candidacy, 'Senator')) {\r\n            senCandidates.push(Candidate(_name, _partyList, _imgHash, 0));\r\n        }\r\n    }\r\n\r\n    function registerVoter(bytes32 _name)\r\n        public\r\n        // onlyOnRegistrationTimeFrame\r\n    {\r\n        voters.push(Voter(_name, true));\r\n    }\r\n\r\n    function votePresident(bytes32 _candidateName) private  {\r\n        for (uint8 i = 0; i < presCandidates.length; i++) {\r\n            if (presCandidates[i].name == _candidateName) {\r\n                presCandidates[i].votes += 1;\r\n            }\r\n        }\r\n    }\r\n\r\n    function voteVicePresident(bytes32 _candidateName) private {\r\n        for (uint8 i = 0; i < vicePresCandidates.length; i++) {\r\n            if (vicePresCandidates[i].name == _candidateName) {\r\n                vicePresCandidates[i].votes += 1;\r\n            }\r\n        }\r\n    }\r\n\r\n    function voteSenator(bytes32 _candidateName) private {\r\n        for (uint8 i = 0; i < senCandidates.length; i++) {\r\n            if (senCandidates[i].name == _candidateName) {\r\n                senCandidates[i].votes += 1;\r\n            }\r\n        }\r\n    }\r\n\r\n    function voteCandidate(bytes32 _candidateName, string memory _candidacy, bytes32 _voterName)\r\n        public\r\n        onlyValidVoter(_voterName)\r\n        // onlyOnVotingTimeFrame\r\n    {\r\n        if (strEquals(_candidacy, 'President'))\r\n        {\r\n            votePresident(_candidateName);\r\n        }\r\n        else if (strEquals(_candidacy, 'Vice President')) {\r\n            voteVicePresident(_candidateName);\r\n        }\r\n        else if (strEquals(_candidacy, 'Vice President')) {\r\n            voteSenator(_candidateName);\r\n        }\r\n    }\r\n\r\n    function getCandidateByIndex(uint8 _index, string memory _candidacy)\r\n        public\r\n        view\r\n        returns (bytes32, bytes32, string memory, uint24)\r\n    {\r\n        if (strEquals(_candidacy, 'President'))\r\n        {\r\n            return\r\n            (\r\n                presCandidates[_index].name,\r\n                presCandidates[_index].partyList,\r\n                presCandidates[_index].imgHash,\r\n                presCandidates[_index].votes\r\n            );\r\n        }\r\n        else if (strEquals(_candidacy, 'Vice President'))\r\n        {\r\n            return\r\n            (\r\n                vicePresCandidates[_index].name,\r\n                vicePresCandidates[_index].partyList,\r\n                vicePresCandidates[_index].imgHash,\r\n                vicePresCandidates[_index].votes\r\n            );\r\n        }\r\n        else if (strEquals(_candidacy, 'Vice President'))\r\n        {\r\n            return\r\n            (\r\n                senCandidates[_index].name,\r\n                senCandidates[_index].partyList,\r\n                senCandidates[_index].imgHash,\r\n                senCandidates[_index].votes\r\n            );\r\n        }\r\n    }\r\n\r\n    function getCandidateByName(bytes32 _name, string memory _candidacy)\r\n        public\r\n        view\r\n        returns (bytes32, bytes32, string memory, uint24)\r\n    {\r\n        if (strEquals(_candidacy, 'President')) {\r\n            return getCandidateFromList(_name, presCandidates);\r\n        }\r\n        else if (strEquals(_candidacy, 'Vice President')) {\r\n            return getCandidateFromList(_name, vicePresCandidates);\r\n        }\r\n        else if (strEquals(_candidacy, 'Senator'))\r\n        {\r\n            return getCandidateFromList(_name, senCandidates);\r\n        }\r\n    }\r\n\r\n    function getPresCount() public view returns (uint8) {\r\n        return uint8(presCandidates.length);\r\n    }\r\n\r\n    function getVicePresCount() public view returns (uint8)\r\n    {\r\n        return uint8(vicePresCandidates.length);\r\n    }\r\n\r\n    function getSenCount() public view returns (uint8) {\r\n        return uint8(senCandidates.length);\r\n    }\r\n\r\n    function getVotes(bytes32 _name, string memory _candidacy)\r\n        public\r\n        view\r\n        returns (uint256)\r\n    {\r\n        (, , , uint24 votes) = getCandidateByName(_name, _candidacy);\r\n        return votes;\r\n    }\r\n\r\n    function getVoterByIndex(uint24 _index)\r\n        public\r\n        view\r\n        returns (bytes32, bool)\r\n    {\r\n\r\n        return\r\n        (\r\n            voters[_index].name,\r\n            voters[_index].validity\r\n        );\r\n\r\n    }\r\n\r\n    function getVoterByName(bytes32 _name)\r\n        public\r\n        view\r\n        returns (bytes32, bool)\r\n    {\r\n        for (uint24 i = 0; i < voters.length; i++) {\r\n            if (voters[i].name == _name) {\r\n\r\n                return\r\n                (\r\n                    voters[i].name,\r\n                    voters[i].validity\r\n                );\r\n\r\n            }\r\n        }\r\n    }\r\n\r\n    function getVoterCount()\r\n        public\r\n        view\r\n        returns (uint24)\r\n    {\r\n        return uint24(voters.length);\r\n    }\r\n\r\n    function invalidateVoter(bytes32 _voterName) public {\r\n        for (uint24 i = 0; i < voters.length; i++) {\r\n            if (voters[i].name == _voterName) {\r\n                voters[i].validity = false;\r\n            }\r\n        }\r\n    }\r\n\r\n    function getCandidateFromList(bytes32 _name, Candidate[] memory _candidateList)\r\n        private\r\n        pure\r\n        returns (bytes32, bytes32, string memory, uint24)\r\n    {\r\n        for (uint256 i = 0; i < _candidateList.length; i++) {\r\n            if (_candidateList[i].name == _name) {\r\n                return\r\n                (\r\n                    _candidateList[i].name,\r\n                    _candidateList[i].partyList,\r\n                    _candidateList[i].imgHash,\r\n                    _candidateList[i].votes\r\n                );\r\n            }\r\n        }\r\n    }\r\n\r\n    function strEquals(string memory a, string memory b) private pure returns (bool) {\r\n        return keccak256(abi.encodePacked(a)) == keccak256(abi.encodePacked(b));\r\n    }\r\n}",
  "sourcePath": "D:/ProgrammingZone/dapp-voting-system/contracts/VotingSystem.sol",
  "compiler": {
    "name": "solc",
    "version": "0.5.4+commit.9549d8ff.Emscripten.clang"
  },
  "schemaVersion": "3.0.11",
  "updatedAt": "2019-06-24T06:59:30.314Z",
  "devdoc": {
    "methods": {}
  },
  "userdoc": {
    "methods": {}
  }
}