{
  "contractName": "VotingSystem",
  "abi": [
    {
      "constant": false,
      "inputs": [
        {
          "name": "_name",
          "type": "bytes32"
        },
        {
          "name": "_imgHash",
          "type": "string"
        },
        {
          "name": "_candidacy",
          "type": "string"
        }
      ],
      "name": "registerCandidate",
      "outputs": [],
      "payable": false,
      "stateMutability": "nonpayable",
      "type": "function"
    },
    {
      "constant": false,
      "inputs": [
        {
          "name": "_name",
          "type": "bytes32"
        }
      ],
      "name": "registerVoter",
      "outputs": [],
      "payable": false,
      "stateMutability": "nonpayable",
      "type": "function"
    },
    {
      "constant": false,
      "inputs": [
        {
          "name": "_candidateName",
          "type": "bytes32"
        },
        {
          "name": "_candidacy",
          "type": "string"
        },
        {
          "name": "_voterName",
          "type": "bytes32"
        }
      ],
      "name": "voteCandidate",
      "outputs": [],
      "payable": false,
      "stateMutability": "nonpayable",
      "type": "function"
    },
    {
      "constant": true,
      "inputs": [
        {
          "name": "_index",
          "type": "uint256"
        },
        {
          "name": "_candidacy",
          "type": "string"
        }
      ],
      "name": "getCandidateByIndex",
      "outputs": [
        {
          "name": "",
          "type": "bytes32"
        },
        {
          "name": "",
          "type": "string"
        },
        {
          "name": "",
          "type": "uint256"
        }
      ],
      "payable": false,
      "stateMutability": "view",
      "type": "function"
    },
    {
      "constant": true,
      "inputs": [
        {
          "name": "_name",
          "type": "bytes32"
        },
        {
          "name": "_candidacy",
          "type": "string"
        }
      ],
      "name": "getCandidateByName",
      "outputs": [
        {
          "name": "",
          "type": "bytes32"
        },
        {
          "name": "",
          "type": "string"
        },
        {
          "name": "",
          "type": "uint256"
        }
      ],
      "payable": false,
      "stateMutability": "view",
      "type": "function"
    },
    {
      "constant": true,
      "inputs": [],
      "name": "getPresCount",
      "outputs": [
        {
          "name": "",
          "type": "uint256"
        }
      ],
      "payable": false,
      "stateMutability": "view",
      "type": "function"
    },
    {
      "constant": true,
      "inputs": [],
      "name": "getVicePresCount",
      "outputs": [
        {
          "name": "",
          "type": "uint256"
        }
      ],
      "payable": false,
      "stateMutability": "view",
      "type": "function"
    },
    {
      "constant": true,
      "inputs": [
        {
          "name": "_name",
          "type": "bytes32"
        },
        {
          "name": "_candidacy",
          "type": "string"
        }
      ],
      "name": "getVotes",
      "outputs": [
        {
          "name": "",
          "type": "uint256"
        }
      ],
      "payable": false,
      "stateMutability": "view",
      "type": "function"
    },
    {
      "constant": true,
      "inputs": [
        {
          "name": "_index",
          "type": "uint256"
        }
      ],
      "name": "getVoterByIndex",
      "outputs": [
        {
          "name": "",
          "type": "bytes32"
        },
        {
          "name": "",
          "type": "bool"
        }
      ],
      "payable": false,
      "stateMutability": "view",
      "type": "function"
    },
    {
      "constant": true,
      "inputs": [
        {
          "name": "_name",
          "type": "bytes32"
        }
      ],
      "name": "getVoterByName",
      "outputs": [
        {
          "name": "",
          "type": "bytes32"
        },
        {
          "name": "",
          "type": "bool"
        }
      ],
      "payable": false,
      "stateMutability": "view",
      "type": "function"
    },
    {
      "constant": true,
      "inputs": [],
      "name": "getVoterCount",
      "outputs": [
        {
          "name": "",
          "type": "uint256"
        }
      ],
      "payable": false,
      "stateMutability": "view",
      "type": "function"
    }
  ],
  "bytecode": "0x6080604052604080519081016040528060008152602001600081525060008082015181600001556020820151816001015550506040805190810160405280600081526020016000815250600260008201518160000155602082015181600101555050604080519081016040528060008152602001600081525060046000820151816000015560208201518160010155505034801561009c57600080fd5b506115c2806100ac6000396000f3fe608060405234801561001057600080fd5b50600436106100c6576000357c010000000000000000000000000000000000000000000000000000000090048063695978221161008e57806369597822146105ac578063793c5d21146105ca5780639ca387db146105f8578063aee8caf014610616578063e820cad314610663578063fad65d80146106b0576100c6565b8063099d1666146100cb57806311174a291461019a57806317e3b1f5146101b85780631a03778d14610304578063529d178914610450575b600080fd5b610198600480360360608110156100e157600080fd5b81019080803590602001909291908035906020019064010000000081111561010857600080fd5b82018360208201111561011a57600080fd5b8035906020019184600183028401116401000000008311171561013c57600080fd5b91908080601f016020809104026020016040519081016040528093929190818152602001838380828437600081840152601f19601f82011690508083019250505050505050919291929080359060200190929190505050610789565b005b6101a26108bc565b6040518082815260200191505060405180910390f35b61027b600480360360408110156101ce57600080fd5b8101908080359060200190929190803590602001906401000000008111156101f557600080fd5b82018360208201111561020757600080fd5b8035906020019184600183028401116401000000008311171561022957600080fd5b91908080601f016020809104026020016040519081016040528093929190818152602001838380828437600081840152601f19601f8201169050808301925050505050505091929192905050506108c9565b6040518084815260200180602001838152602001828103825284818151815260200191508051906020019080838360005b838110156102c75780820151818401526020810190506102ac565b50505050905090810190601f1680156102f45780820380516001836020036101000a031916815260200191505b5094505050505060405180910390f35b6103c76004803603604081101561031a57600080fd5b81019080803590602001909291908035906020019064010000000081111561034157600080fd5b82018360208201111561035357600080fd5b8035906020019184600183028401116401000000008311171561037557600080fd5b91908080601f016020809104026020016040519081016040528093929190818152602001838380828437600081840152601f19601f820116905080830192505050505050509192919290505050610b71565b6040518084815260200180602001838152602001828103825284818151815260200191508051906020019080838360005b838110156104135780820151818401526020810190506103f8565b50505050905090810190601f1680156104405780820380516001836020036101000a031916815260200191505b5094505050505060405180910390f35b6105aa6004803603606081101561046657600080fd5b81019080803590602001909291908035906020019064010000000081111561048d57600080fd5b82018360208201111561049f57600080fd5b803590602001918460018302840111640100000000831117156104c157600080fd5b91908080601f016020809104026020016040519081016040528093929190818152602001838380828437600081840152601f19601f8201169050808301925050505050505091929192908035906020019064010000000081111561052457600080fd5b82018360208201111561053657600080fd5b8035906020019184600183028401116401000000008311171561055857600080fd5b91908080601f016020809104026020016040519081016040528093929190818152602001838380828437600081840152601f19601f820116905080830192505050505050509192919290505050610eb1565b005b6105b4611041565b6040518082815260200191505060405180910390f35b6105f6600480360360208110156105e057600080fd5b810190808035906020019092919050505061104e565b005b6106006110c3565b6040518082815260200191505060405180910390f35b6106426004803603602081101561062c57600080fd5b81019080803590602001909291905050506110d0565b60405180838152602001821515151581526020019250505060405180910390f35b61068f6004803603602081101561067957600080fd5b810190808035906020019092919050505061117b565b60405180838152602001821515151581526020019250505060405180910390f35b610773600480360360408110156106c657600080fd5b8101908080359060200190929190803590602001906401000000008111156106ed57600080fd5b8201836020820111156106ff57600080fd5b8035906020019184600183028401116401000000008311171561072157600080fd5b91908080601f016020809104026020016040519081016040528093929190818152602001838380828437600081840152601f19601f8201169050808301925050505050505091929192905050506111d6565b6040518082815260200191505060405180910390f35b806000610795826110d0565b91505060011515811515141515610814576040517f08c379a00000000000000000000000000000000000000000000000000000000081526004018080602001828103825260198152602001807f596f7520617265206e6f7420612056616c696420566f7465720000000000000081525060200191505060405180910390fd5b610853846040805190810160405280600981526020017f507265736964656e7400000000000000000000000000000000000000000000008152506111f1565b1561086657610861856112e4565b6108b5565b6108a5846040805190810160405280600e81526020017f5669636520507265736964656e740000000000000000000000000000000000008152506111f1565b156108b4576108b385611360565b5b5b5050505050565b6000600880549050905090565b60006060600061090e846040805190810160405280600981526020017f507265736964656e7400000000000000000000000000000000000000000000008152506111f1565b15610a1c5760068581548110151561092257fe5b90600052602060002090600302016000015460068681548110151561094357fe5b906000526020600020906003020160010160068781548110151561096357fe5b906000526020600020906003020160020154818054600181600116156101000203166002900480601f016020809104026020016040519081016040528092919081815260200182805460018160011615610100020316600290048015610a0a5780601f106109df57610100808354040283529160200191610a0a565b820191906000526020600020905b8154815290600101906020018083116109ed57829003601f168201915b50505050509150925092509250610b6a565b610a5b846040805190810160405280600e81526020017f5669636520507265736964656e740000000000000000000000000000000000008152506111f1565b15610b6957600785815481101515610a6f57fe5b906000526020600020906003020160000154600786815481101515610a9057fe5b9060005260206000209060030201600101600787815481101515610ab057fe5b906000526020600020906003020160020154818054600181600116156101000203166002900480601f016020809104026020016040519081016040528092919081815260200182805460018160011615610100020316600290048015610b575780601f10610b2c57610100808354040283529160200191610b57565b820191906000526020600020905b815481529060010190602001808311610b3a57829003601f168201915b50505050509150925092509250610b6a565b5b9250925092565b600060606000610bb6846040805190810160405280600981526020017f507265736964656e7400000000000000000000000000000000000000000000008152506111f1565b15610cde57610cd3856006805480602002602001604051908101604052809291908181526020016000905b82821015610cca57838290600052602060002090600302016060604051908101604052908160008201548152602001600182018054600181600116156101000203166002900480601f016020809104026020016040519081016040528092919081815260200182805460018160011615610100020316600290048015610ca85780601f10610c7d57610100808354040283529160200191610ca8565b820191906000526020600020905b815481529060010190602001808311610c8b57829003601f168201915b5050505050815260200160028201548152505081526020019060010190610be1565b505050506113dc565b925092509250610eaa565b610d1d846040805190810160405280600e81526020017f5669636520507265736964656e740000000000000000000000000000000000008152506111f1565b15610e4557610e3a856007805480602002602001604051908101604052809291908181526020016000905b82821015610e3157838290600052602060002090600302016060604051908101604052908160008201548152602001600182018054600181600116156101000203166002900480601f016020809104026020016040519081016040528092919081815260200182805460018160011615610100020316600290048015610e0f5780601f10610de457610100808354040283529160200191610e0f565b820191906000526020600020905b815481529060010190602001808311610df257829003601f168201915b5050505050815260200160028201548152505081526020019060010190610d48565b505050506113dc565b925092509250610eaa565b60017f4e6f000000000000000000000000000000000000000000000000000000000000906040805190810160405280600981526020017f43616e6469646174650000000000000000000000000000000000000000000000815250908090509250925092505b9250925092565b610ef0816040805190810160405280600981526020017f507265736964656e7400000000000000000000000000000000000000000000008152506111f1565b15610f78576006606060405190810160405280858152602001848152602001600081525090806001815401808255809150509060018203906000526020600020906003020160009091929091909150600082015181600001556020820151816001019080519060200190610f659291906114f1565b506040820151816002015550505061103c565b610fb7816040805190810160405280600e81526020017f5669636520507265736964656e740000000000000000000000000000000000008152506111f1565b1561103b57600760606040519081016040528085815260200184815260200160008152509080600181540180825580915050906001820390600052602060002090600302016000909192909190915060008201518160000155602082015181600101908051906020019061102c9291906114f1565b50604082015181600201555050505b5b505050565b6000600680549050905090565b6008604080519081016040528083815260200160011515815250908060018154018082558091505090600182039060005260206000209060020201600090919290919091506000820151816000015560208201518160010160006101000a81548160ff02191690831515021790555050505050565b6000600780549050905090565b60008060008090505b60088054905081101561117457836008828154811015156110f657fe5b90600052602060002090600202016000015414156111675760088181548110151561111d57fe5b90600052602060002090600202016000015460088281548110151561113e57fe5b906000526020600020906002020160010160009054906101000a900460ff169250925050611176565b80806001019150506110d9565b505b915091565b60008060088381548110151561118d57fe5b9060005260206000209060020201600001546008848154811015156111ae57fe5b906000526020600020906002020160010160009054906101000a900460ff1691509150915091565b6000806111e38484610b71565b925050508091505092915050565b6000816040516020018082805190602001908083835b60208310151561122c5780518252602082019150602081019050602083039250611207565b6001836020036101000a03801982511681845116808217855250505050505090500191505060405160208183030381529060405280519060200120836040516020018082805190602001908083835b6020831015156112a0578051825260208201915060208101905060208303925061127b565b6001836020036101000a0380198251168184511680821785525050505050509050019150506040516020818303038152906040528051906020012014905092915050565b60008090505b60068054905081101561135c578160068281548110151561130757fe5b906000526020600020906003020160000154141561134f57600160068281548110151561133057fe5b9060005260206000209060030201600201600082825401925050819055505b80806001019150506112ea565b5050565b60008090505b6007805490508110156113d8578160078281548110151561138357fe5b90600052602060002090600302016000015414156113cb5760016007828154811015156113ac57fe5b9060005260206000209060030201600201600082825401925050819055505b8080600101915050611366565b5050565b60006060600080600090505b84518110156114845785858281518110151561140057fe5b9060200190602002015160000151141561147757848181518110151561142257fe5b9060200190602002015160000151858281518110151561143e57fe5b9060200190602002015160200151868381518110151561145a57fe5b9060200190602002015160400151819150935093509350506114ea565b80806001019150506113e8565b5060017f4e6f740000000000000000000000000000000000000000000000000000000000906040805190810160405280600581526020017f466f756e64000000000000000000000000000000000000000000000000000000815250908090509250925092505b9250925092565b828054600181600116156101000203166002900490600052602060002090601f016020900481019282601f1061153257805160ff1916838001178555611560565b82800160010185558215611560579182015b8281111561155f578251825591602001919060010190611544565b5b50905061156d9190611571565b5090565b61159391905b8082111561158f576000816000905550600101611577565b5090565b9056fea165627a7a72305820d25385ded49135f7252c7e94c30901f070636728bc29471957db9fb008d410f30029",
  "source": "pragma solidity 0.5.4;\r\n\r\ncontract VotingSystem {\r\n\r\n    struct Voter {\r\n        bytes32 name;\r\n        // add more information\r\n\r\n        bool valid;\r\n    }\r\n\r\n    struct Candidate {\r\n        bytes32 name;\r\n        string imgHash;\r\n        // add more information\r\n\r\n        uint votes;\r\n    }\r\n\r\n    struct TimeFrame {\r\n        uint256 start;\r\n        uint256 end;\r\n    }\r\n\r\n    TimeFrame candidateRegistration = TimeFrame(0, 0);\r\n    TimeFrame voterRegistration = TimeFrame(0, 0);\r\n    TimeFrame votingTimeFrame = TimeFrame(0, 0);\r\n\r\n    Candidate[] presCandidates;\r\n    Candidate[] vicePresCandidates;\r\n\r\n    Voter[] voters;\r\n\r\n    modifier onlyOnCandidateRegistrationTimeFrame() {\r\n        require(\r\n            candidateRegistration.start <= now &&\r\n            now <= candidateRegistration.end,\r\n            \"Candidates Registration Prohibited\"\r\n        );\r\n        _;\r\n    }\r\n\r\n    modifier onlyOnVoterRegistrationTimeFrame() {\r\n        require(\r\n            voterRegistration.start <= now &&\r\n            now <= voterRegistration.end,\r\n            \"Voters Registration Prohibited\"\r\n        );\r\n        _;\r\n    }\r\n\r\n    modifier onlyOnVotingTimeFrame() {\r\n        require(\r\n            votingTimeFrame.start <= now &&\r\n            now <= votingTimeFrame.end,\r\n            \"Voting Prohibited\"\r\n        );\r\n        _;\r\n    }\r\n\r\n    modifier onlyValidVoter(bytes32 _voterName) {\r\n        (, bool valid) = getVoterByName(_voterName);\r\n\r\n        require(\r\n            valid == true,\r\n            \"You are not a Valid Voter\"\r\n        );\r\n        _;\r\n    }\r\n\r\n    function registerCandidate(bytes32 _name, string memory _imgHash, string memory _candidacy)\r\n        public\r\n        // onlyOnCandidateRegistrationTimeFrame\r\n    {\r\n        if (strEquals(_candidacy, 'President')) {\r\n            presCandidates.push(Candidate(_name, _imgHash, 0));\r\n        }\r\n        else if (strEquals(_candidacy, 'Vice President')) {\r\n            vicePresCandidates.push(Candidate(_name, _imgHash, 0));\r\n        }\r\n    }\r\n\r\n    function registerVoter(bytes32 _name)\r\n        public\r\n        // onlyOnVoterRegistrationTimeFrame\r\n    {\r\n        voters.push(Voter(_name, true));\r\n    }\r\n\r\n    function votePresident(bytes32 _candidateName) private  {\r\n        for (uint256 i = 0; i < presCandidates.length; i++) {\r\n            if (presCandidates[i].name == _candidateName) {\r\n                presCandidates[i].votes += 1;\r\n            }\r\n        }\r\n    }\r\n\r\n    function voteVicePresident(bytes32 _candidateName) private {\r\n        for (uint256 i = 0; i < vicePresCandidates.length; i++) {\r\n            if (vicePresCandidates[i].name == _candidateName) {\r\n                vicePresCandidates[i].votes += 1;\r\n            }\r\n        }\r\n    }\r\n\r\n    function voteCandidate(bytes32 _candidateName, string memory _candidacy, bytes32 _voterName)\r\n        public\r\n        onlyValidVoter(_voterName)\r\n        // onlyOnVotingTimeFrame\r\n    {\r\n        if (strEquals(_candidacy, 'President'))\r\n        {\r\n            votePresident(_candidateName);\r\n        }\r\n        else if (strEquals(_candidacy, 'Vice President')) {\r\n            voteVicePresident(_candidateName);\r\n        }\r\n    }\r\n\r\n    function getCandidateByIndex(uint256 _index, string memory _candidacy)\r\n        public\r\n        view\r\n        returns (bytes32, string memory, uint256)\r\n    {\r\n        if (strEquals(_candidacy, 'President'))\r\n        {\r\n            return\r\n            (\r\n                presCandidates[_index].name,\r\n                presCandidates[_index].imgHash,\r\n                presCandidates[_index].votes\r\n            );\r\n        }\r\n        else if (strEquals(_candidacy, 'Vice President'))\r\n        {\r\n            return\r\n            (\r\n                vicePresCandidates[_index].name,\r\n                vicePresCandidates[_index].imgHash,\r\n                vicePresCandidates[_index].votes\r\n            );\r\n        }\r\n    }\r\n\r\n    function getCandidateByName(bytes32 _name, string memory _candidacy)\r\n        public\r\n        view\r\n        returns (bytes32, string memory, uint256)\r\n    {\r\n        if (strEquals(_candidacy, 'President')) {\r\n            return getCandidateFromList(_name, presCandidates);\r\n        }\r\n        else if (strEquals(_candidacy, 'Vice President')) {\r\n            return getCandidateFromList(_name, vicePresCandidates);\r\n        }\r\n        else {\r\n            return (\"No\", \"Candidate\", 1);\r\n        }\r\n\r\n    }\r\n\r\n    function getPresCount() public view returns (uint256) {\r\n        return presCandidates.length;\r\n    }\r\n\r\n    function getVicePresCount() public view returns (uint256)\r\n    {\r\n        return vicePresCandidates.length;\r\n    }\r\n\r\n\r\n    function getVotes(bytes32 _name, string memory _candidacy)\r\n        public\r\n        view\r\n        returns (uint256)\r\n    {\r\n        (, , uint256 votes) = getCandidateByName(_name, _candidacy);\r\n        return votes;\r\n    }\r\n\r\n    function getVoterByIndex(uint256 _index)\r\n        public\r\n        view\r\n        returns (bytes32, bool)\r\n    {\r\n\r\n        return\r\n        (\r\n            voters[_index].name,\r\n            voters[_index].valid\r\n        );\r\n\r\n    }\r\n\r\n    function getVoterByName(bytes32 _name)\r\n        public\r\n        view\r\n        returns (bytes32, bool)\r\n    {\r\n        for (uint256 i = 0; i < voters.length; i++) {\r\n            if (voters[i].name == _name) {\r\n\r\n                return\r\n                (\r\n                    voters[i].name,\r\n                    voters[i].valid\r\n                );\r\n\r\n            }\r\n        }\r\n    }\r\n\r\n    function getVoterCount()\r\n        public\r\n        view\r\n        returns (uint256)\r\n    {\r\n        return voters.length;\r\n    }\r\n\r\n    function getCandidateFromList(bytes32 _name, Candidate[] memory _candidateList)\r\n        private\r\n        pure\r\n        returns (bytes32, string memory, uint256)\r\n    {\r\n        for (uint256 i = 0; i < _candidateList.length; i++) {\r\n            if (_candidateList[i].name == _name) {\r\n                return\r\n                (\r\n                    _candidateList[i].name,\r\n                    _candidateList[i].imgHash,\r\n                    _candidateList[i].votes\r\n                );\r\n            }\r\n        }\r\n        return (\"Not\", 'Found', 1);\r\n    }\r\n\r\n    function strEquals(string memory a, string memory b) private pure returns (bool) {\r\n        return keccak256(abi.encodePacked(a)) == keccak256(abi.encodePacked(b));\r\n    }\r\n\r\n    //TODO\r\n    // Set Voter Validity (after voting must be invalid)\r\n    // Check If Voter is Registerd\r\n}",
  "sourcePath": "D:/ProgrammingZone/dapp-voting-system/contracts/VotingSystem.sol",
  "compiler": {
    "name": "solc",
    "version": "0.5.4+commit.9549d8ff.Emscripten.clang"
  },
  "schemaVersion": "3.0.11",
  "updatedAt": "2019-06-20T16:58:34.262Z",
  "devdoc": {
    "methods": {}
  },
  "userdoc": {
    "methods": {}
  }
}