{
  "contractName": "VotingSystem",
  "abi": [
    {
      "constant": false,
      "inputs": [
        {
          "name": "name",
          "type": "string"
        },
        {
          "name": "imgHash",
          "type": "string"
        }
      ],
      "name": "registerCandidate",
      "outputs": [],
      "payable": false,
      "stateMutability": "nonpayable",
      "type": "function"
    },
    {
      "constant": true,
      "inputs": [
        {
          "name": "name",
          "type": "string"
        }
      ],
      "name": "getCandidate",
      "outputs": [
        {
          "name": "",
          "type": "string"
        }
      ],
      "payable": false,
      "stateMutability": "view",
      "type": "function"
    },
    {
      "constant": false,
      "inputs": [
        {
          "name": "name",
          "type": "string"
        }
      ],
      "name": "registerVoter",
      "outputs": [],
      "payable": false,
      "stateMutability": "nonpayable",
      "type": "function"
    },
    {
      "constant": false,
      "inputs": [
        {
          "name": "candidateName",
          "type": "string"
        },
        {
          "name": "voterName",
          "type": "string"
        }
      ],
      "name": "voteCandidate",
      "outputs": [],
      "payable": false,
      "stateMutability": "nonpayable",
      "type": "function"
    },
    {
      "constant": true,
      "inputs": [
        {
          "name": "name",
          "type": "string"
        }
      ],
      "name": "getVotes",
      "outputs": [
        {
          "name": "",
          "type": "uint256"
        }
      ],
      "payable": false,
      "stateMutability": "view",
      "type": "function"
    }
  ],
  "bytecode": "0x608060405260408051908101604052806000815260200160008152506002600082015181600001556020820151816001015550506040805190810160405280600081526020016000815250600460008201518160000155602082015181600101555050604080519081016040528060008152602001600081525060066000820151816000015560208201518160010155505034801561009d57600080fd5b506109e0806100ad6000396000f3fe608060405234801561001057600080fd5b5060043610610074576000357c01000000000000000000000000000000000000000000000000000000009004806301757f7b146100795780630dbce4dd146101cb5780636428a4861461031d578063805265e5146103d8578063f276669d146104a7575b600080fd5b6101c96004803603604081101561008f57600080fd5b81019080803590602001906401000000008111156100ac57600080fd5b8201836020820111156100be57600080fd5b803590602001918460018302840111640100000000831117156100e057600080fd5b91908080601f016020809104026020016040519081016040528093929190818152602001838380828437600081840152601f19601f8201169050808301925050505050505091929192908035906020019064010000000081111561014357600080fd5b82018360208201111561015557600080fd5b8035906020019184600183028401116401000000008311171561017757600080fd5b91908080601f016020809104026020016040519081016040528093929190818152602001838380828437600081840152601f19601f8201169050808301925050505050505091929192905050506105db565b005b61031b600480360360408110156101e157600080fd5b81019080803590602001906401000000008111156101fe57600080fd5b82018360208201111561021057600080fd5b8035906020019184600183028401116401000000008311171561023257600080fd5b91908080601f016020809104026020016040519081016040528093929190818152602001838380828437600081840152601f19601f8201169050808301925050505050505091929192908035906020019064010000000081111561029557600080fd5b8201836020820111156102a757600080fd5b803590602001918460018302840111640100000000831117156102c957600080fd5b91908080601f016020809104026020016040519081016040528093929190818152602001838380828437600081840152601f19601f8201169050808301925050505050505091929192905050506106b4565b005b6103d66004803603602081101561033357600080fd5b810190808035906020019064010000000081111561035057600080fd5b82018360208201111561036257600080fd5b8035906020019184600183028401116401000000008311171561038457600080fd5b91908080601f016020809104026020016040519081016040528093929190818152602001838380828437600081840152601f19601f820116905080830192505050505050509192919290505050610736565b005b610491600480360360208110156103ee57600080fd5b810190808035906020019064010000000081111561040b57600080fd5b82018360208201111561041d57600080fd5b8035906020019184600183028401116401000000008311171561043f57600080fd5b91908080601f016020809104026020016040519081016040528093929190818152602001838380828437600081840152601f19601f8201169050808301925050505050505091929192905050506107ac565b6040518082815260200191505060405180910390f35b610560600480360360208110156104bd57600080fd5b81019080803590602001906401000000008111156104da57600080fd5b8201836020820111156104ec57600080fd5b8035906020019184600183028401116401000000008311171561050e57600080fd5b91908080601f016020809104026020016040519081016040528093929190818152602001838380828437600081840152601f19601f8201169050808301925050505050505091929192905050506107d3565b6040518080602001828103825283818151815260200191508051906020019080838360005b838110156105a0578082015181840152602081019050610585565b50505050905090810190601f1680156105cd5780820380516001836020036101000a031916815260200191505b509250505060405180910390f35b8060011515600160006105ed84610892565b815260200190815260200160002060010160009054906101000a900460ff161515141515610683576040517f08c379a00000000000000000000000000000000000000000000000000000000081526004018080602001828103825260198152602001807f596f7520617265206e6f7420612056616c696420566f7465720000000000000081525060200191505060405180910390fd5b600160008061069186610892565b815260200190815260200160002060020160008282540192505081905550505050565b60606040519081016040528083815260200182815260200160008152506000806106dd85610892565b8152602001908152602001600020600082015181600001908051906020019061070792919061090f565b50602082015181600101908051906020019061072492919061090f565b50604082015181600201559050505050565b6040805190810160405280828152602001600115158152506001600061075b84610892565b8152602001908152602001600020600082015181600001908051906020019061078592919061090f565b5060208201518160010160006101000a81548160ff02191690831515021790555090505050565b60008060006107ba84610892565b8152602001908152602001600020600201549050919050565b60606000806107e184610892565b81526020019081526020016000206000018054600181600116156101000203166002900480601f0160208091040260200160405190810160405280929190818152602001828054600181600116156101000203166002900480156108865780601f1061085b57610100808354040283529160200191610886565b820191906000526020600020905b81548152906001019060200180831161086957829003601f168201915b50505050509050919050565b6000816040516020018082805190602001908083835b6020831015156108cd57805182526020820191506020810190506020830392506108a8565b6001836020036101000a038019825116818451168082178552505050505050905001915050604051602081830303815290604052805190602001209050919050565b828054600181600116156101000203166002900490600052602060002090601f016020900481019282601f1061095057805160ff191683800117855561097e565b8280016001018555821561097e579182015b8281111561097d578251825591602001919060010190610962565b5b50905061098b919061098f565b5090565b6109b191905b808211156109ad576000816000905550600101610995565b5090565b9056fea165627a7a72305820b6ce0bb80786fb6bae7ea1f202c6a271128c4959653ffa95996e30f2623b1b9d0029",
  "source": "pragma solidity 0.5.4;\r\n\r\ncontract VotingSystem {\r\n\r\n    struct Voter {\r\n        string name;\r\n        // add more information\r\n\r\n        bool valid;\r\n    }\r\n\r\n    struct Candidate {\r\n        string name;\r\n        string imgHash;\r\n        // add more information\r\n\r\n        uint votes;\r\n    }\r\n\r\n    struct TimeFrame {\r\n        uint256 start;\r\n        uint256 end;\r\n    }\r\n\r\n    mapping (bytes32 => Candidate) candidates;\r\n    mapping (bytes32 => Voter) voters;\r\n    TimeFrame candidateRegistration = TimeFrame(0, 0);\r\n    TimeFrame voterRegistration = TimeFrame(0, 0);\r\n    TimeFrame votingTimeFrame = TimeFrame(0, 0);\r\n\r\n    modifier onlyOnCandidateRegistrationTimeFrame() {\r\n        require(\r\n            candidateRegistration.start <= now &&\r\n            now <= candidateRegistration.end,\r\n            \"Candidates Registration Prohibited\"\r\n        );\r\n        _;\r\n    }\r\n\r\n    modifier onlyOnVoterRegistrationTimeFrame() {\r\n        require(\r\n            voterRegistration.start <= now &&\r\n            now <= voterRegistration.end,\r\n            \"Voters Registration Prohibited\"\r\n        );\r\n        _;\r\n    }\r\n\r\n    modifier onlyOnVotingTimeFrame() {\r\n        require(\r\n            votingTimeFrame.start <= now &&\r\n            now <= votingTimeFrame.end,\r\n            \"Voting Prohibited\"\r\n        );\r\n        _;\r\n    }\r\n\r\n    modifier onlyValidVoter(string memory voterName) {\r\n        require(\r\n            voters[strHash(voterName)].valid == true,\r\n            \"You are not a Valid Voter\"\r\n        );\r\n        _;\r\n    }\r\n\r\n    // Kill Contract on Election End;\r\n\r\n    function registerCandidate(string memory name, string memory imgHash)\r\n        public\r\n        // onlyOnCandidateRegistrationTimeFrame\r\n    {\r\n        candidates[strHash(name)] = Candidate(name, imgHash, 0);\r\n    }\r\n\r\n    function getCandidate(string memory name)\r\n        public\r\n        view\r\n        returns (string memory)\r\n    {\r\n        return candidates[strHash(name)].name;\r\n    }\r\n\r\n    function registerVoter(string memory name)\r\n        public\r\n        // onlyOnVoterRegistrationTimeFrame\r\n    {\r\n        voters[strHash(name)] = Voter(name, true);\r\n    }\r\n\r\n    function voteCandidate(string memory candidateName, string memory voterName)\r\n        public\r\n        onlyValidVoter(voterName)\r\n        // onlyOnVotingTimeFrame\r\n    {\r\n        candidates[strHash(candidateName)].votes += 1;\r\n    }\r\n\r\n    function getVotes(string memory name)\r\n        public\r\n        view\r\n        returns (uint256)\r\n    {\r\n        return candidates[strHash(name)].votes;\r\n    }\r\n\r\n    function strHash(string memory str)\r\n        private\r\n        pure\r\n        returns (bytes32)\r\n    {\r\n        return keccak256(abi.encodePacked(str));\r\n    }\r\n}",
  "sourcePath": "D:/ProgrammingZone/dapp-voting-system/contracts/VotingSystem.sol",
  "compiler": {
    "name": "solc",
    "version": "0.5.4+commit.9549d8ff.Emscripten.clang"
  },
  "schemaVersion": "3.0.11",
  "updatedAt": "2019-06-19T11:43:56.449Z",
  "devdoc": {
    "methods": {}
  },
  "userdoc": {
    "methods": {}
  }
}