{
  "contractName": "VotingSystem",
  "abi": [
    {
      "inputs": [
        {
          "name": "daysTillRegistrationStart",
          "type": "uint256"
        },
        {
          "name": "daysTillRegistrationEnd",
          "type": "uint256"
        },
        {
          "name": "daysTillVotingStart",
          "type": "uint256"
        },
        {
          "name": "dayTillsVotingEnd",
          "type": "uint256"
        }
      ],
      "payable": false,
      "stateMutability": "nonpayable",
      "type": "constructor"
    },
    {
      "constant": false,
      "inputs": [
        {
          "name": "_name",
          "type": "bytes32"
        },
        {
          "name": "_partyList",
          "type": "bytes32"
        },
        {
          "name": "_imgHash",
          "type": "string"
        },
        {
          "name": "_candidacy",
          "type": "string"
        }
      ],
      "name": "registerCandidate",
      "outputs": [],
      "payable": false,
      "stateMutability": "nonpayable",
      "type": "function"
    },
    {
      "constant": false,
      "inputs": [
        {
          "name": "_name",
          "type": "bytes32"
        }
      ],
      "name": "registerVoter",
      "outputs": [],
      "payable": false,
      "stateMutability": "nonpayable",
      "type": "function"
    },
    {
      "constant": false,
      "inputs": [
        {
          "name": "_candidateName",
          "type": "bytes32"
        },
        {
          "name": "_candidacy",
          "type": "string"
        },
        {
          "name": "_voterName",
          "type": "bytes32"
        }
      ],
      "name": "voteCandidate",
      "outputs": [],
      "payable": false,
      "stateMutability": "nonpayable",
      "type": "function"
    },
    {
      "constant": true,
      "inputs": [
        {
          "name": "_index",
          "type": "uint256"
        },
        {
          "name": "_candidacy",
          "type": "string"
        }
      ],
      "name": "getCandidateByIndex",
      "outputs": [
        {
          "name": "",
          "type": "bytes32"
        },
        {
          "name": "",
          "type": "bytes32"
        },
        {
          "name": "",
          "type": "string"
        },
        {
          "name": "",
          "type": "uint256"
        }
      ],
      "payable": false,
      "stateMutability": "view",
      "type": "function"
    },
    {
      "constant": true,
      "inputs": [
        {
          "name": "_name",
          "type": "bytes32"
        },
        {
          "name": "_candidacy",
          "type": "string"
        }
      ],
      "name": "getCandidateByName",
      "outputs": [
        {
          "name": "",
          "type": "bytes32"
        },
        {
          "name": "",
          "type": "bytes32"
        },
        {
          "name": "",
          "type": "string"
        },
        {
          "name": "",
          "type": "uint256"
        }
      ],
      "payable": false,
      "stateMutability": "view",
      "type": "function"
    },
    {
      "constant": true,
      "inputs": [],
      "name": "getPresCount",
      "outputs": [
        {
          "name": "",
          "type": "uint256"
        }
      ],
      "payable": false,
      "stateMutability": "view",
      "type": "function"
    },
    {
      "constant": true,
      "inputs": [],
      "name": "getVicePresCount",
      "outputs": [
        {
          "name": "",
          "type": "uint256"
        }
      ],
      "payable": false,
      "stateMutability": "view",
      "type": "function"
    },
    {
      "constant": true,
      "inputs": [],
      "name": "getSenCount",
      "outputs": [
        {
          "name": "",
          "type": "uint256"
        }
      ],
      "payable": false,
      "stateMutability": "view",
      "type": "function"
    },
    {
      "constant": true,
      "inputs": [
        {
          "name": "_name",
          "type": "bytes32"
        },
        {
          "name": "_candidacy",
          "type": "string"
        }
      ],
      "name": "getVotes",
      "outputs": [
        {
          "name": "",
          "type": "uint256"
        }
      ],
      "payable": false,
      "stateMutability": "view",
      "type": "function"
    },
    {
      "constant": true,
      "inputs": [
        {
          "name": "_index",
          "type": "uint256"
        }
      ],
      "name": "getVoterByIndex",
      "outputs": [
        {
          "name": "",
          "type": "bytes32"
        },
        {
          "name": "",
          "type": "bool"
        }
      ],
      "payable": false,
      "stateMutability": "view",
      "type": "function"
    },
    {
      "constant": true,
      "inputs": [
        {
          "name": "_name",
          "type": "bytes32"
        }
      ],
      "name": "getVoterByName",
      "outputs": [
        {
          "name": "",
          "type": "bytes32"
        },
        {
          "name": "",
          "type": "bool"
        }
      ],
      "payable": false,
      "stateMutability": "view",
      "type": "function"
    },
    {
      "constant": true,
      "inputs": [],
      "name": "getVoterCount",
      "outputs": [
        {
          "name": "",
          "type": "uint256"
        }
      ],
      "payable": false,
      "stateMutability": "view",
      "type": "function"
    },
    {
      "constant": false,
      "inputs": [
        {
          "name": "_voterName",
          "type": "bytes32"
        }
      ],
      "name": "invalidateVoter",
      "outputs": [],
      "payable": false,
      "stateMutability": "nonpayable",
      "type": "function"
    }
  ],
  "bytecode": "0x608060405234801561001057600080fd5b506040516080806117d48339810180604052608081101561003057600080fd5b50805160208083015160408085015160609095015181518083018352426201518096870281018083529487028101918601829052600094909455600155815180830190925294840282018082529390940201920182905260025560035560088054600160a060020a03191633179055611726806100ae6000396000f3fe608060405234801561001057600080fd5b50600436106100ec576000357c01000000000000000000000000000000000000000000000000000000009004806394da21f6116100a9578063cdd2453c11610083578063cdd2453c1461053f578063d6fb3c4814610547578063e820cad314610564578063fad65d8014610581576100ec565b806394da21f6146103c85780639ca387db14610501578063aee8caf014610509576100ec565b8063099d1666146100f157806311174a29146101a257806317e3b1f5146101bc5780631a03778d146102f657806369597822146103a3578063793c5d21146103ab575b600080fd5b6101a06004803603606081101561010757600080fd5b8135919081019060408101602082013564010000000081111561012957600080fd5b82018360208201111561013b57600080fd5b8035906020019184600183028401116401000000008311171561015d57600080fd5b91908080601f016020809104026020016040519081016040528093929190818152602001838380828437600092019190915250929550509135925061062e915050565b005b6101aa61076b565b60408051918252519081900360200190f35b610269600480360360408110156101d257600080fd5b813591908101906040810160208201356401000000008111156101f457600080fd5b82018360208201111561020657600080fd5b8035906020019184600183028401116401000000008311171561022857600080fd5b91908080601f016020809104026020016040519081016040528093929190818152602001838380828437600092019190915250929550610772945050505050565b6040518085815260200184815260200180602001838152602001828103825284818151815260200191508051906020019080838360005b838110156102b85781810151838201526020016102a0565b50505050905090810190601f1680156102e55780820380516001836020036101000a031916815260200191505b509550505050505060405180910390f35b6102696004803603604081101561030c57600080fd5b8135919081019060408101602082013564010000000081111561032e57600080fd5b82018360208201111561034057600080fd5b8035906020019184600183028401116401000000008311171561036257600080fd5b91908080601f016020809104026020016040519081016040528093929190818152602001838380828437600092019190915250929550610a17945050505050565b6101aa610e27565b6101a0600480360360208110156103c157600080fd5b5035610e2d565b6101a0600480360360808110156103de57600080fd5b81359160208101359181019060608101604082013564010000000081111561040557600080fd5b82018360208201111561041757600080fd5b8035906020019184600183028401116401000000008311171561043957600080fd5b91908080601f016020809104026020016040519081016040528093929190818152602001838380828437600092019190915250929594936020810193503591505064010000000081111561048c57600080fd5b82018360208201111561049e57600080fd5b803590602001918460018302840111640100000000831117156104c057600080fd5b91908080601f016020809104026020016040519081016040528093929190818152602001838380828437600092019190915250929550610eb2945050505050565b6101aa6111ba565b6105266004803603602081101561051f57600080fd5b50356111c0565b6040805192835290151560208301528051918290030190f35b6101aa611258565b6101a06004803603602081101561055d57600080fd5b503561125e565b6105266004803603602081101561057a57600080fd5b50356112d3565b6101aa6004803603604081101561059757600080fd5b813591908101906040810160208201356401000000008111156105b957600080fd5b8201836020820111156105cb57600080fd5b803590602001918460018302840111640100000000831117156105ed57600080fd5b91908080601f016020809104026020016040519081016040528093929190818152602001838380828437600092019190915250929550611327945050505050565b80600061063a826111c0565b9150506001811515146106ae57604080517f08c379a000000000000000000000000000000000000000000000000000000000815260206004820152601960248201527f596f7520617265206e6f7420612056616c696420566f74657200000000000000604482015290519081900360640190fd5b6106db846040805190810160405280600981526020016000805160206116bb83398151915281525061133f565b156106ee576106e985611426565b610764565b61071b846040805190810160405280600e81526020016000805160206116db83398151915281525061133f565b15610729576106e98561148f565b610756846040805190810160405280600e81526020016000805160206116db83398151915281525061133f565b1561076457610764856114f8565b5050505050565b6007545b90565b600080606060006107a6856040805190810160405280600981526020016000805160206116bb83398151915281525061133f565b156108ca5760048054879081106107b957fe5b9060005260206000209060040201600001546004878154811015156107da57fe5b9060005260206000209060040201600101546004888154811015156107fb57fe5b906000526020600020906004020160020160048981548110151561081b57fe5b600091825260209182902060036004909202010154825460408051601f6002600019610100600187161502019094169390930492830185900485028101850190915281815291928491908301828280156108b65780601f1061088b576101008083540402835291602001916108b6565b820191906000526020600020905b81548152906001019060200180831161089957829003601f168201915b505050505091509350935093509350610a0e565b6108f7856040805190810160405280600e81526020016000805160206116db83398151915281525061133f565b1561096c57600580548790811061090a57fe5b90600052602060002090600402016000015460058781548110151561092b57fe5b90600052602060002090600402016001015460058881548110151561094c57fe5b906000526020600020906004020160020160058981548110151561081b57fe5b610999856040805190810160405280600e81526020016000805160206116db83398151915281525061133f565b15610a0e5760068054879081106109ac57fe5b9060005260206000209060040201600001546006878154811015156109cd57fe5b9060005260206000209060040201600101546006888154811015156109ee57fe5b906000526020600020906004020160020160068981548110151561081b57fe5b92959194509250565b60008060606000610a4b856040805190810160405280600981526020016000805160206116bb83398151915281525061133f565b15610b7f57610b72866004805480602002602001604051908101604052809291908181526020016000905b82821015610b695783829060005260206000209060040201608060405190810160405290816000820154815260200160018201548152602001600282018054600181600116156101000203166002900480601f016020809104026020016040519081016040528092919081815260200182805460018160011615610100020316600290048015610b475780601f10610b1c57610100808354040283529160200191610b47565b820191906000526020600020905b815481529060010190602001808311610b2a57829003601f168201915b5050505050815260200160038201548152505081526020019060010190610a76565b50505050611561565b9350935093509350610a0e565b610bac856040805190810160405280600e81526020016000805160206116db83398151915281525061133f565b15610cca57610b72866005805480602002602001604051908101604052809291908181526020016000905b82821015610b695783829060005260206000209060040201608060405190810160405290816000820154815260200160018201548152602001600282018054600181600116156101000203166002900480601f016020809104026020016040519081016040528092919081815260200182805460018160011615610100020316600290048015610ca85780601f10610c7d57610100808354040283529160200191610ca8565b820191906000526020600020905b815481529060010190602001808311610c8b57829003601f168201915b5050505050815260200160038201548152505081526020019060010190610bd7565b610d09856040805190810160405280600781526020017f53656e61746f720000000000000000000000000000000000000000000000000081525061133f565b15610a0e57610b72866006805480602002602001604051908101604052809291908181526020016000905b82821015610b695783829060005260206000209060040201608060405190810160405290816000820154815260200160018201548152602001600282018054600181600116156101000203166002900480601f016020809104026020016040519081016040528092919081815260200182805460018160011615610100020316600290048015610e055780601f10610dda57610100808354040283529160200191610e05565b820191906000526020600020905b815481529060010190602001808311610de857829003601f168201915b5050505050815260200160038201548152505081526020019060010190610d34565b60045490565b6040805180820190915290815260016020820181815260078054928301815560005291517fa66cc928b5edb82af9bd49922954155ab7b0942694bea4ce44661d9a8736c68860029092029182015590517fa66cc928b5edb82af9bd49922954155ab7b0942694bea4ce44661d9a8736c689909101805460ff1916911515919091179055565b610edf816040805190810160405280600981526020016000805160206116bb83398151915281525061133f565b15610fb157604080516080810182528581526020808201868152928201858152600060608401819052600480546001810180835592829052855191027f8a35acfbc15ff81a39ae7d344fd709f28e8600b4aa8c65c6b64bfe7fe36bd19b810191825595517f8a35acfbc15ff81a39ae7d344fd709f28e8600b4aa8c65c6b64bfe7fe36bd19c8701559151805191959293610f9e937f8a35acfbc15ff81a39ae7d344fd709f28e8600b4aa8c65c6b64bfe7fe36bd19d0192910190611622565b50606082015181600301555050506111b4565b610fde816040805190810160405280600e81526020016000805160206116db83398151915281525061133f565b156110a257604080516080810182528581526020808201868152928201858152600060608401819052600580546001810180835591909252845160049092027f036b6384b5eca791c62761152d0c79bb0604c104a5fb6f4eb0703f3154bb3db0810192835595517f036b6384b5eca791c62761152d0c79bb0604c104a5fb6f4eb0703f3154bb3db18701559151805192959193610f9e937f036b6384b5eca791c62761152d0c79bb0604c104a5fb6f4eb0703f3154bb3db290930192910190611622565b6110e1816040805190810160405280600781526020017f53656e61746f720000000000000000000000000000000000000000000000000081525061133f565b156111b457604080516080810182528581526020808201868152928201858152600060608401819052600680546001810180835591909252845160049092027ff652222313e28459528d920b65115c16c04f3efc82aaedc97be59f3f377c0d3f810192835595517ff652222313e28459528d920b65115c16c04f3efc82aaedc97be59f3f377c0d4087015591518051929591936111a5937ff652222313e28459528d920b65115c16c04f3efc82aaedc97be59f3f377c0d4190930192910190611622565b50606082015181600301555050505b50505050565b60055490565b600080805b60075481101561125157836007828154811015156111df57fe5b906000526020600020906002020160000154141561124957600780548290811061120557fe5b90600052602060002090600202016000015460078281548110151561122657fe5b600091825260209091206001600290920201015490935060ff1691506112539050565b6001016111c5565b505b915091565b60065490565b60005b6007548110156112cf578160078281548110151561127b57fe5b90600052602060002090600202016000015414156112c75760006007828154811015156112a457fe5b60009182526020909120600290910201600101805460ff19169115159190911790555b600101611261565b5050565b6000806007838154811015156112e557fe5b90600052602060002090600202016000015460078481548110151561130657fe5b600091825260209091206001600290920201015490925060ff169050915091565b6000806113348484610a17565b979650505050505050565b6000816040516020018082805190602001908083835b602083106113745780518252601f199092019160209182019101611355565b6001836020036101000a03801982511681845116808217855250505050505090500191505060405160208183030381529060405280519060200120836040516020018082805190602001908083835b602083106113e25780518252601f1990920191602091820191016113c3565b6001836020036101000a0380198251168184511680821785525050505050509050019150506040516020818303038152906040528051906020012014905092915050565b60005b6004548110156112cf578160048281548110151561144357fe5b906000526020600020906004020160000154141561148757600160048281548110151561146c57fe5b60009182526020909120600360049092020101805490910190555b600101611429565b60005b6005548110156112cf57816005828154811015156114ac57fe5b90600052602060002090600402016000015414156114f05760016005828154811015156114d557fe5b60009182526020909120600360049092020101805490910190555b600101611492565b60005b6006548110156112cf578160068281548110151561151557fe5b906000526020600020906004020160000154141561155957600160068281548110151561153e57fe5b60009182526020909120600360049092020101805490910190555b6001016114fb565b600080606081805b85518110156116185786868281518110151561158157fe5b602090810290910101515114156116105785818151811015156115a057fe5b602090810290910101515186518790839081106115b957fe5b906020019060200201516020015187838151811015156115d557fe5b906020019060200201516040015188848151811015156115f157fe5b9060200190602002015160600151819150945094509450945050610a0e565b600101611569565b5092959194509250565b828054600181600116156101000203166002900490600052602060002090601f016020900481019282601f1061166357805160ff1916838001178555611690565b82800160010185558215611690579182015b82811115611690578251825591602001919060010190611675565b5061169c9291506116a0565b5090565b61076f91905b8082111561169c57600081556001016116a656fe507265736964656e7400000000000000000000000000000000000000000000005669636520507265736964656e74000000000000000000000000000000000000a165627a7a72305820849b507451f624d4a22deb1577a2a3c67c6e4587ba99683d5f78f05ba84162b80029",
  "source": "pragma solidity 0.5.4;\r\n\r\ncontract VotingSystem {\r\n\r\n    struct Voter {\r\n        bytes32 name;\r\n        // add more information\r\n\r\n        bool validity;\r\n    }\r\n\r\n    struct Candidate {\r\n        bytes32 name;\r\n        bytes32 partyList;\r\n        // add more information\r\n\r\n        string imgHash;\r\n        // Improvement:\r\n        //\r\n        // imgHash {\r\n        //      bytes32 hash\r\n        //      uint8 hash_function\r\n        //      uint8 size\r\n        // }\r\n\r\n        uint votes;\r\n    }\r\n\r\n    struct TimeFrame {\r\n        uint256 start;\r\n        uint256 end;\r\n    }\r\n\r\n    TimeFrame registrationPhase;\r\n    TimeFrame votingPhase;\r\n\r\n    Candidate[] presCandidates;\r\n    Candidate[] vicePresCandidates;\r\n    Candidate[] senCandidates;\r\n\r\n    Voter[] voters;\r\n\r\n    address electionAdmin;\r\n\r\n    modifier onlyElectionAdmin() {\r\n        require(electionAdmin == msg.sender, \"You don't have administration rights\");\r\n        _;\r\n    }\r\n\r\n    modifier onlyUnregisteredVoter(bytes32 _voterName) {\r\n        for (uint256 i = 0; i < voters.length; i++) {\r\n            require(voters[i].name != _voterName, 'You are already registered as a voter');\r\n        }\r\n        _;\r\n    }\r\n\r\n    modifier onlyUnregisteredCandidate(bytes32 _voterName, string memory _candidacy) {\r\n        if (strEquals(_candidacy, 'President')) {\r\n            for (uint256 i = 0; i < presCandidates.length; i++) {\r\n                require(presCandidates[i].name != _voterName, 'You are already registered as a candidate');\r\n            }\r\n        }\r\n        else if (strEquals(_candidacy, 'Vice President')) {\r\n            for (uint256 i = 0; i < vicePresCandidates.length; i++) {\r\n                require(vicePresCandidates[i].name != _voterName, 'You are already registered as a candidate');\r\n            }\r\n        }\r\n        else if (strEquals(_candidacy, 'Senator')) {\r\n            for (uint256 i = 0; i < senCandidates.length; i++) {\r\n                require(senCandidates[i].name != _voterName, 'You are already registered as a candidate');\r\n            }\r\n        }\r\n        _;\r\n    }\r\n\r\n    modifier onlyOnRegistrationTimeFrame() {\r\n        require(\r\n            registrationPhase.start <= now &&\r\n            now <= registrationPhase.end,\r\n            \"Registration Prohibited\"\r\n        );\r\n        _;\r\n    }\r\n\r\n    modifier onlyOnVotingTimeFrame() {\r\n        require(\r\n            votingPhase.start <= now &&\r\n            now <= votingPhase.end,\r\n            \"Voting Prohibited\"\r\n        );\r\n        _;\r\n    }\r\n\r\n    modifier onlyValidVoter(bytes32 _voterName) {\r\n        (, bool valid) = getVoterByName(_voterName);\r\n\r\n        require(\r\n            valid == true,\r\n            \"You are not a Valid Voter\"\r\n        );\r\n        _;\r\n    }\r\n\r\n    constructor(uint256 daysTillRegistrationStart, uint256 daysTillRegistrationEnd,\r\n                uint256 daysTillVotingStart, uint256 dayTillsVotingEnd) public {\r\n\r\n        uint256 registrationStart = daysTillRegistrationStart * 1 days;\r\n        uint256 registrationEnd = daysTillRegistrationEnd * 1 days;\r\n\r\n        uint votingStart = daysTillVotingStart * 1 days;\r\n        uint votingEnd = dayTillsVotingEnd * 1 days;\r\n\r\n        registrationPhase = TimeFrame(now + registrationStart, now + registrationEnd);\r\n        votingPhase = TimeFrame(now + votingStart, now + votingEnd);\r\n        electionAdmin = msg.sender;\r\n    }\r\n\r\n    function registerCandidate(bytes32 _name, bytes32 _partyList, string memory _imgHash, string memory _candidacy)\r\n        public\r\n        // onlyOnCandidateRegistrationTimeFrame\r\n    {\r\n        if (strEquals(_candidacy, 'President')) {\r\n            presCandidates.push(Candidate(_name, _partyList, _imgHash, 0));\r\n        }\r\n        else if (strEquals(_candidacy, 'Vice President')) {\r\n            vicePresCandidates.push(Candidate(_name, _partyList, _imgHash, 0));\r\n        }\r\n        else if (strEquals(_candidacy, 'Senator')) {\r\n            senCandidates.push(Candidate(_name, _partyList, _imgHash, 0));\r\n        }\r\n    }\r\n\r\n    function registerVoter(bytes32 _name)\r\n        public\r\n        // onlyOnRegistrationTimeFrame\r\n    {\r\n        voters.push(Voter(_name, true));\r\n    }\r\n\r\n    function votePresident(bytes32 _candidateName) private  {\r\n        for (uint256 i = 0; i < presCandidates.length; i++) {\r\n            if (presCandidates[i].name == _candidateName) {\r\n                presCandidates[i].votes += 1;\r\n            }\r\n        }\r\n    }\r\n\r\n    function voteVicePresident(bytes32 _candidateName) private {\r\n        for (uint256 i = 0; i < vicePresCandidates.length; i++) {\r\n            if (vicePresCandidates[i].name == _candidateName) {\r\n                vicePresCandidates[i].votes += 1;\r\n            }\r\n        }\r\n    }\r\n\r\n    function voteSenator(bytes32 _candidateName) private {\r\n        for (uint256 i = 0; i < senCandidates.length; i++) {\r\n            if (senCandidates[i].name == _candidateName) {\r\n                senCandidates[i].votes += 1;\r\n            }\r\n        }\r\n    }\r\n\r\n    function voteCandidate(bytes32 _candidateName, string memory _candidacy, bytes32 _voterName)\r\n        public\r\n        onlyValidVoter(_voterName)\r\n        // onlyOnVotingTimeFrame\r\n    {\r\n        if (strEquals(_candidacy, 'President'))\r\n        {\r\n            votePresident(_candidateName);\r\n        }\r\n        else if (strEquals(_candidacy, 'Vice President')) {\r\n            voteVicePresident(_candidateName);\r\n        }\r\n        else if (strEquals(_candidacy, 'Vice President')) {\r\n            voteSenator(_candidateName);\r\n        }\r\n    }\r\n\r\n    function getCandidateByIndex(uint256 _index, string memory _candidacy)\r\n        public\r\n        view\r\n        returns (bytes32, bytes32, string memory, uint256)\r\n    {\r\n        if (strEquals(_candidacy, 'President'))\r\n        {\r\n            return\r\n            (\r\n                presCandidates[_index].name,\r\n                presCandidates[_index].partyList,\r\n                presCandidates[_index].imgHash,\r\n                presCandidates[_index].votes\r\n            );\r\n        }\r\n        else if (strEquals(_candidacy, 'Vice President'))\r\n        {\r\n            return\r\n            (\r\n                vicePresCandidates[_index].name,\r\n                vicePresCandidates[_index].partyList,\r\n                vicePresCandidates[_index].imgHash,\r\n                vicePresCandidates[_index].votes\r\n            );\r\n        }\r\n        else if (strEquals(_candidacy, 'Vice President'))\r\n        {\r\n            return\r\n            (\r\n                senCandidates[_index].name,\r\n                senCandidates[_index].partyList,\r\n                senCandidates[_index].imgHash,\r\n                senCandidates[_index].votes\r\n            );\r\n        }\r\n    }\r\n\r\n    function getCandidateByName(bytes32 _name, string memory _candidacy)\r\n        public\r\n        view\r\n        returns (bytes32, bytes32, string memory, uint256)\r\n    {\r\n        if (strEquals(_candidacy, 'President')) {\r\n            return getCandidateFromList(_name, presCandidates);\r\n        }\r\n        else if (strEquals(_candidacy, 'Vice President')) {\r\n            return getCandidateFromList(_name, vicePresCandidates);\r\n        }\r\n        else if (strEquals(_candidacy, 'Senator'))\r\n        {\r\n            return getCandidateFromList(_name, senCandidates);\r\n        }\r\n    }\r\n\r\n    function getPresCount() public view returns (uint256) {\r\n        return presCandidates.length;\r\n    }\r\n\r\n    function getVicePresCount() public view returns (uint256)\r\n    {\r\n        return vicePresCandidates.length;\r\n    }\r\n\r\n    function getSenCount() public view returns (uint256) {\r\n        return senCandidates.length;\r\n    }\r\n\r\n    function getVotes(bytes32 _name, string memory _candidacy)\r\n        public\r\n        view\r\n        returns (uint256)\r\n    {\r\n        (, , , uint256 votes) = getCandidateByName(_name, _candidacy);\r\n        return votes;\r\n    }\r\n\r\n    function getVoterByIndex(uint256 _index)\r\n        public\r\n        view\r\n        returns (bytes32, bool)\r\n    {\r\n\r\n        return\r\n        (\r\n            voters[_index].name,\r\n            voters[_index].validity\r\n        );\r\n\r\n    }\r\n\r\n    function getVoterByName(bytes32 _name)\r\n        public\r\n        view\r\n        returns (bytes32, bool)\r\n    {\r\n        for (uint256 i = 0; i < voters.length; i++) {\r\n            if (voters[i].name == _name) {\r\n\r\n                return\r\n                (\r\n                    voters[i].name,\r\n                    voters[i].validity\r\n                );\r\n\r\n            }\r\n        }\r\n    }\r\n\r\n    function getVoterCount()\r\n        public\r\n        view\r\n        returns (uint256)\r\n    {\r\n        return voters.length;\r\n    }\r\n\r\n    function invalidateVoter(bytes32 _voterName) public {\r\n        for (uint256 i = 0; i < voters.length; i++) {\r\n            if (voters[i].name == _voterName) {\r\n                voters[i].validity = false;\r\n            }\r\n        }\r\n    }\r\n\r\n    function getCandidateFromList(bytes32 _name, Candidate[] memory _candidateList)\r\n        private\r\n        pure\r\n        returns (bytes32, bytes32, string memory, uint256)\r\n    {\r\n        for (uint256 i = 0; i < _candidateList.length; i++) {\r\n            if (_candidateList[i].name == _name) {\r\n                return\r\n                (\r\n                    _candidateList[i].name,\r\n                    _candidateList[i].partyList,\r\n                    _candidateList[i].imgHash,\r\n                    _candidateList[i].votes\r\n                );\r\n            }\r\n        }\r\n    }\r\n\r\n    function strEquals(string memory a, string memory b) private pure returns (bool) {\r\n        return keccak256(abi.encodePacked(a)) == keccak256(abi.encodePacked(b));\r\n    }\r\n}",
  "sourcePath": "D:/ProgrammingZone/dapp-voting-system/contracts/VotingSystem.sol",
  "compiler": {
    "name": "solc",
    "version": "0.5.4+commit.9549d8ff.Emscripten.clang"
  },
  "schemaVersion": "3.0.11",
  "updatedAt": "2019-06-24T06:24:29.793Z",
  "devdoc": {
    "methods": {}
  },
  "userdoc": {
    "methods": {}
  }
}